{
  "contractName": "Contained",
  "abi": [
    {
      "inputs": [],
      "name": "container",
      "outputs": [
        {
          "internalType": "contract BaseContainer",
          "name": "",
          "type": "address"
        }
      ],
      "stateMutability": "view",
      "type": "function"
    },
    {
      "inputs": [],
      "name": "owner",
      "outputs": [
        {
          "internalType": "address payable",
          "name": "",
          "type": "address"
        }
      ],
      "stateMutability": "view",
      "type": "function"
    },
    {
      "inputs": [
        {
          "internalType": "address payable",
          "name": "newOwner",
          "type": "address"
        }
      ],
      "name": "transferOwnership",
      "outputs": [],
      "stateMutability": "nonpayable",
      "type": "function"
    },
    {
      "inputs": [
        {
          "internalType": "contract BaseContainer",
          "name": "_container",
          "type": "address"
        }
      ],
      "name": "setContainerEntry",
      "outputs": [],
      "stateMutability": "nonpayable",
      "type": "function"
    }
  ],
  "bytecode": "0x6080604052336000806101000a81548173ffffffffffffffffffffffffffffffffffffffff021916908373ffffffffffffffffffffffffffffffffffffffff160217905550610356806100536000396000f3fe608060405234801561001057600080fd5b506004361061004c5760003560e01c80630ab01647146100515780638da5cb5b1461009557806390e534a7146100df578063f2fde38b14610129575b600080fd5b6100936004803603602081101561006757600080fd5b81019080803573ffffffffffffffffffffffffffffffffffffffff16906020019092919050505061016d565b005b61009d610207565b604051808273ffffffffffffffffffffffffffffffffffffffff1673ffffffffffffffffffffffffffffffffffffffff16815260200191505060405180910390f35b6100e761022c565b604051808273ffffffffffffffffffffffffffffffffffffffff1673ffffffffffffffffffffffffffffffffffffffff16815260200191505060405180910390f35b61016b6004803603602081101561013f57600080fd5b81019080803573ffffffffffffffffffffffffffffffffffffffff169060200190929190505050610252565b005b6000809054906101000a900473ffffffffffffffffffffffffffffffffffffffff1673ffffffffffffffffffffffffffffffffffffffff163373ffffffffffffffffffffffffffffffffffffffff16146101c357fe5b80600160006101000a81548173ffffffffffffffffffffffffffffffffffffffff021916908373ffffffffffffffffffffffffffffffffffffffff16021790555050565b6000809054906101000a900473ffffffffffffffffffffffffffffffffffffffff1681565b600160009054906101000a900473ffffffffffffffffffffffffffffffffffffffff1681565b6000809054906101000a900473ffffffffffffffffffffffffffffffffffffffff1673ffffffffffffffffffffffffffffffffffffffff163373ffffffffffffffffffffffffffffffffffffffff16146102a857fe5b600073ffffffffffffffffffffffffffffffffffffffff168173ffffffffffffffffffffffffffffffffffffffff161461031d57806000806101000a81548173ffffffffffffffffffffffffffffffffffffffff021916908373ffffffffffffffffffffffffffffffffffffffff1602179055505b5056fea264697066735822122083c7f1a194f6a2ded520461b84395028fc0b6cd777482edccd53c8fbcf92b39264736f6c63430006000033",
  "source": "pragma solidity ^0.6.0;\n\nimport \"../auth/Owned.sol\";\nimport \"./ContractNames.sol\";\nimport \"./BaseContainer.sol\";\n\n\n/**\n    @title Contained\n    @dev Wraps the contracts and functions from unauthorized access outside the system\n    @author karlptrck\n */\ncontract Contained is Owned, ContractNames {\n    BaseContainer public container;\n\n    function setContainerEntry(BaseContainer _container) public onlyOwner {\n        container = _container;\n    }\n\n    modifier onlyContained() {\n        require(address(container) != address(0), \"No Container\");\n        require(msg.sender == address(container), \"Only through Container\");\n        _;\n    }\n\n    modifier onlyContract(string memory name) {\n        require(address(container) != address(0), \"No Container\");\n        address allowedContract = container.getContract(name);\n        assert(allowedContract != address(0));\n        require(\n            msg.sender == allowedContract,\n            \"Only specific contract can access\"\n        );\n        _;\n    }\n}\n",
  "sourcePath": "/home/leo/Documents/dapp/microfinance-dapp/contracts/container/Contained.sol",
  "compiler": {
    "name": "solc",
    "version": "0.6.0+commit.26b70077.Emscripten.clang"
  },
  "schemaVersion": "3.0.23",
  "updatedAt": "2020-04-15T20:58:09.688Z",
  "devdoc": {
    "author": "karlptrck",
    "details": "Wraps the contracts and functions from unauthorized access outside the system",
    "methods": {},
    "title": "Contained"
  },
  "userdoc": {
    "methods": {}
  }
}