{
  "contractName": "LoanDB",
  "abi": [
    {
      "inputs": [],
      "name": "container",
      "outputs": [
        {
          "internalType": "contract BaseContainer",
          "name": "",
          "type": "address"
        }
      ],
      "stateMutability": "view",
      "type": "function",
      "constant": true
    },
    {
      "inputs": [],
      "name": "owner",
      "outputs": [
        {
          "internalType": "address payable",
          "name": "",
          "type": "address"
        }
      ],
      "stateMutability": "view",
      "type": "function",
      "constant": true
    },
    {
      "inputs": [
        {
          "internalType": "contract BaseContainer",
          "name": "_container",
          "type": "address"
        }
      ],
      "name": "setContainerEntry",
      "outputs": [],
      "stateMutability": "nonpayable",
      "type": "function"
    },
    {
      "inputs": [
        {
          "internalType": "address payable",
          "name": "newOwner",
          "type": "address"
        }
      ],
      "name": "transferOwnership",
      "outputs": [],
      "stateMutability": "nonpayable",
      "type": "function"
    },
    {
      "inputs": [
        {
          "internalType": "bytes32",
          "name": "debtNo",
          "type": "bytes32"
        },
        {
          "internalType": "address",
          "name": "_borrower",
          "type": "address"
        },
        {
          "internalType": "uint256",
          "name": "_amountOfDebt",
          "type": "uint256"
        },
        {
          "internalType": "uint256",
          "name": "_interest",
          "type": "uint256"
        }
      ],
      "name": "addDebt",
      "outputs": [],
      "stateMutability": "nonpayable",
      "type": "function"
    },
    {
      "inputs": [
        {
          "internalType": "bytes32",
          "name": "debtNo",
          "type": "bytes32"
        },
        {
          "internalType": "address",
          "name": "_lender",
          "type": "address"
        }
      ],
      "name": "updateLender",
      "outputs": [],
      "stateMutability": "nonpayable",
      "type": "function"
    },
    {
      "inputs": [
        {
          "internalType": "bytes32",
          "name": "debtNo",
          "type": "bytes32"
        }
      ],
      "name": "completeDebt",
      "outputs": [],
      "stateMutability": "nonpayable",
      "type": "function"
    },
    {
      "inputs": [
        {
          "internalType": "bytes32",
          "name": "debtNo",
          "type": "bytes32"
        }
      ],
      "name": "getLenderofDebt",
      "outputs": [
        {
          "internalType": "address",
          "name": "",
          "type": "address"
        }
      ],
      "stateMutability": "view",
      "type": "function",
      "constant": true
    },
    {
      "inputs": [
        {
          "internalType": "bytes32",
          "name": "debtNo",
          "type": "bytes32"
        }
      ],
      "name": "getBorrowerofDebt",
      "outputs": [
        {
          "internalType": "address",
          "name": "",
          "type": "address"
        }
      ],
      "stateMutability": "view",
      "type": "function",
      "constant": true
    },
    {
      "inputs": [
        {
          "internalType": "bytes32",
          "name": "debtNo",
          "type": "bytes32"
        }
      ],
      "name": "getAmountofDebt",
      "outputs": [
        {
          "internalType": "uint256",
          "name": "",
          "type": "uint256"
        }
      ],
      "stateMutability": "view",
      "type": "function",
      "constant": true
    },
    {
      "inputs": [
        {
          "internalType": "bytes32",
          "name": "debtNo",
          "type": "bytes32"
        }
      ],
      "name": "getInterestofDebt",
      "outputs": [
        {
          "internalType": "uint256",
          "name": "",
          "type": "uint256"
        }
      ],
      "stateMutability": "view",
      "type": "function",
      "constant": true
    },
    {
      "inputs": [
        {
          "internalType": "bytes32",
          "name": "debtNo",
          "type": "bytes32"
        }
      ],
      "name": "getStateofDebt",
      "outputs": [
        {
          "internalType": "uint8",
          "name": "",
          "type": "uint8"
        }
      ],
      "stateMutability": "view",
      "type": "function",
      "constant": true
    },
    {
      "inputs": [
        {
          "internalType": "address",
          "name": "_address",
          "type": "address"
        }
      ],
      "name": "getDebtHistory",
      "outputs": [
        {
          "internalType": "bytes32[]",
          "name": "",
          "type": "bytes32[]"
        }
      ],
      "stateMutability": "view",
      "type": "function",
      "constant": true
    },
    {
      "inputs": [
        {
          "internalType": "address",
          "name": "_address",
          "type": "address"
        }
      ],
      "name": "getLendHistory",
      "outputs": [
        {
          "internalType": "bytes32[]",
          "name": "",
          "type": "bytes32[]"
        }
      ],
      "stateMutability": "view",
      "type": "function",
      "constant": true
    }
  ],
  "bytecode": "0x6080604052336000806101000a81548173ffffffffffffffffffffffffffffffffffffffff021916908373ffffffffffffffffffffffffffffffffffffffff160217905550611534806100536000396000f3fe608060405234801561001057600080fd5b50600436106100ea5760003560e01c80638da5cb5b1161008c578063f192eaf011610066578063f192eaf0146104ad578063f2fde38b146104db578063fafa084d1461051f578063fdd1b9d914610561576100ea565b80638da5cb5b146103ab57806390e534a7146103f55780639b36d5751461043f576100ea565b806343505730116100c857806343505730146101e9578063721d19021461028257806373400caf146102c45780637a3b5db61461035d576100ea565b80630ab01647146100ef5780630f2e9ef81461013357806314ba0aa81461017b575b600080fd5b6101316004803603602081101561010557600080fd5b81019080803573ffffffffffffffffffffffffffffffffffffffff1690602001909291905050506105c3565b005b61015f6004803603602081101561014957600080fd5b810190808035906020019092919050505061065d565b604051808260ff1660ff16815260200191505060405180910390f35b6101a76004803603602081101561019157600080fd5b810190808035906020019092919050505061068a565b604051808273ffffffffffffffffffffffffffffffffffffffff1673ffffffffffffffffffffffffffffffffffffffff16815260200191505060405180910390f35b61022b600480360360208110156101ff57600080fd5b81019080803573ffffffffffffffffffffffffffffffffffffffff1690602001909291905050506106ca565b6040518080602001828103825283818151815260200191508051906020019060200280838360005b8381101561026e578082015181840152602081019050610253565b505050509050019250505060405180910390f35b6102ae6004803603602081101561029857600080fd5b8101908080359060200190929190505050610761565b6040518082815260200191505060405180910390f35b610306600480360360208110156102da57600080fd5b81019080803573ffffffffffffffffffffffffffffffffffffffff169060200190929190505050610781565b6040518080602001828103825283818151815260200191508051906020019060200280838360005b8381101561034957808201518184015260208101905061032e565b505050509050019250505060405180910390f35b6103a96004803603604081101561037357600080fd5b8101908080359060200190929190803573ffffffffffffffffffffffffffffffffffffffff169060200190929190505050610818565b005b6103b3610be1565b604051808273ffffffffffffffffffffffffffffffffffffffff1673ffffffffffffffffffffffffffffffffffffffff16815260200191505060405180910390f35b6103fd610c06565b604051808273ffffffffffffffffffffffffffffffffffffffff1673ffffffffffffffffffffffffffffffffffffffff16815260200191505060405180910390f35b61046b6004803603602081101561045557600080fd5b8101908080359060200190929190505050610c2c565b604051808273ffffffffffffffffffffffffffffffffffffffff1673ffffffffffffffffffffffffffffffffffffffff16815260200191505060405180910390f35b6104d9600480360360208110156104c357600080fd5b8101908080359060200190929190505050610c6c565b005b61051d600480360360208110156104f157600080fd5b81019080803573ffffffffffffffffffffffffffffffffffffffff169060200190929190505050610f78565b005b61054b6004803603602081101561053557600080fd5b8101908080359060200190929190505050611046565b6040518082815260200191505060405180910390f35b6105c16004803603608081101561057757600080fd5b8101908080359060200190929190803573ffffffffffffffffffffffffffffffffffffffff1690602001909291908035906020019092919080359060200190929190505050611066565b005b6000809054906101000a900473ffffffffffffffffffffffffffffffffffffffff1673ffffffffffffffffffffffffffffffffffffffff163373ffffffffffffffffffffffffffffffffffffffff161461061957fe5b80600160006101000a81548173ffffffffffffffffffffffffffffffffffffffff021916908373ffffffffffffffffffffffffffffffffffffffff16021790555050565b60006002600083815260200190815260200160002060040160009054906101000a900460ff169050919050565b60006002600083815260200190815260200160002060000160009054906101000a900473ffffffffffffffffffffffffffffffffffffffff169050919050565b6060600360008373ffffffffffffffffffffffffffffffffffffffff1673ffffffffffffffffffffffffffffffffffffffff16815260200190815260200160002080548060200260200160405190810160405280929190818152602001828054801561075557602002820191906000526020600020905b815481526020019060010190808311610741575b50505050509050919050565b600060026000838152602001908152602001600020600201549050919050565b6060600460008373ffffffffffffffffffffffffffffffffffffffff1673ffffffffffffffffffffffffffffffffffffffff16815260200190815260200160002080548060200260200160405190810160405280929190818152602001828054801561080c57602002820191906000526020600020905b8154815260200190600101908083116107f8575b50505050509050919050565b6040518060400160405280600b81526020017f4c6f616e4d616e61676572000000000000000000000000000000000000000000815250600073ffffffffffffffffffffffffffffffffffffffff16600160009054906101000a900473ffffffffffffffffffffffffffffffffffffffff1673ffffffffffffffffffffffffffffffffffffffff161415610913576040517f08c379a000000000000000000000000000000000000000000000000000000000815260040180806020018281038252600c8152602001807f4e6f20436f6e7461696e6572000000000000000000000000000000000000000081525060200191505060405180910390fd5b6000600160009054906101000a900473ffffffffffffffffffffffffffffffffffffffff1673ffffffffffffffffffffffffffffffffffffffff166335817773836040518263ffffffff1660e01b81526004018080602001828103825283818151815260200191508051906020019080838360005b838110156109a3578082015181840152602081019050610988565b50505050905090810190601f1680156109d05780820380516001836020036101000a031916815260200191505b509250505060206040518083038186803b1580156109ed57600080fd5b505afa158015610a01573d6000803e3d6000fd5b505050506040513d6020811015610a1757600080fd5b81019080805190602001909291905050509050600073ffffffffffffffffffffffffffffffffffffffff168173ffffffffffffffffffffffffffffffffffffffff161415610a6157fe5b8073ffffffffffffffffffffffffffffffffffffffff163373ffffffffffffffffffffffffffffffffffffffff1614610ae5576040517f08c379a00000000000000000000000000000000000000000000000000000000081526004018080602001828103825260218152602001806114de6021913960400191505060405180910390fd5b826002600086815260200190815260200160002060000160006101000a81548173ffffffffffffffffffffffffffffffffffffffff021916908373ffffffffffffffffffffffffffffffffffffffff16021790555060016002811115610b4757fe5b6002600086815260200190815260200160002060040160006101000a81548160ff021916908360ff160217905550600360008473ffffffffffffffffffffffffffffffffffffffff1673ffffffffffffffffffffffffffffffffffffffff16815260200190815260200160002084908060018154018082558091505060019003906000526020600020016000909190919091505550505050565b6000809054906101000a900473ffffffffffffffffffffffffffffffffffffffff1681565b600160009054906101000a900473ffffffffffffffffffffffffffffffffffffffff1681565b60006002600083815260200190815260200160002060010160009054906101000a900473ffffffffffffffffffffffffffffffffffffffff169050919050565b6040518060400160405280600b81526020017f4c6f616e4d616e61676572000000000000000000000000000000000000000000815250600073ffffffffffffffffffffffffffffffffffffffff16600160009054906101000a900473ffffffffffffffffffffffffffffffffffffffff1673ffffffffffffffffffffffffffffffffffffffff161415610d67576040517f08c379a000000000000000000000000000000000000000000000000000000000815260040180806020018281038252600c8152602001807f4e6f20436f6e7461696e6572000000000000000000000000000000000000000081525060200191505060405180910390fd5b6000600160009054906101000a900473ffffffffffffffffffffffffffffffffffffffff1673ffffffffffffffffffffffffffffffffffffffff166335817773836040518263ffffffff1660e01b81526004018080602001828103825283818151815260200191508051906020019080838360005b83811015610df7578082015181840152602081019050610ddc565b50505050905090810190601f168015610e245780820380516001836020036101000a031916815260200191505b509250505060206040518083038186803b158015610e4157600080fd5b505afa158015610e55573d6000803e3d6000fd5b505050506040513d6020811015610e6b57600080fd5b81019080805190602001909291905050509050600073ffffffffffffffffffffffffffffffffffffffff168173ffffffffffffffffffffffffffffffffffffffff161415610eb557fe5b8073ffffffffffffffffffffffffffffffffffffffff163373ffffffffffffffffffffffffffffffffffffffff1614610f39576040517f08c379a00000000000000000000000000000000000000000000000000000000081526004018080602001828103825260218152602001806114de6021913960400191505060405180910390fd5b600280811115610f4557fe5b6002600085815260200190815260200160002060040160006101000a81548160ff021916908360ff160217905550505050565b6000809054906101000a900473ffffffffffffffffffffffffffffffffffffffff1673ffffffffffffffffffffffffffffffffffffffff163373ffffffffffffffffffffffffffffffffffffffff1614610fce57fe5b600073ffffffffffffffffffffffffffffffffffffffff168173ffffffffffffffffffffffffffffffffffffffff161461104357806000806101000a81548173ffffffffffffffffffffffffffffffffffffffff021916908373ffffffffffffffffffffffffffffffffffffffff1602179055505b50565b600060026000838152602001908152602001600020600301549050919050565b6040518060400160405280600b81526020017f4c6f616e4d616e61676572000000000000000000000000000000000000000000815250600073ffffffffffffffffffffffffffffffffffffffff16600160009054906101000a900473ffffffffffffffffffffffffffffffffffffffff1673ffffffffffffffffffffffffffffffffffffffff161415611161576040517f08c379a000000000000000000000000000000000000000000000000000000000815260040180806020018281038252600c8152602001807f4e6f20436f6e7461696e6572000000000000000000000000000000000000000081525060200191505060405180910390fd5b6000600160009054906101000a900473ffffffffffffffffffffffffffffffffffffffff1673ffffffffffffffffffffffffffffffffffffffff166335817773836040518263ffffffff1660e01b81526004018080602001828103825283818151815260200191508051906020019080838360005b838110156111f15780820151818401526020810190506111d6565b50505050905090810190601f16801561121e5780820380516001836020036101000a031916815260200191505b509250505060206040518083038186803b15801561123b57600080fd5b505afa15801561124f573d6000803e3d6000fd5b505050506040513d602081101561126557600080fd5b81019080805190602001909291905050509050600073ffffffffffffffffffffffffffffffffffffffff168173ffffffffffffffffffffffffffffffffffffffff1614156112af57fe5b8073ffffffffffffffffffffffffffffffffffffffff163373ffffffffffffffffffffffffffffffffffffffff1614611333576040517f08c379a00000000000000000000000000000000000000000000000000000000081526004018080602001828103825260218152602001806114de6021913960400191505060405180910390fd5b6040518060a00160405280600073ffffffffffffffffffffffffffffffffffffffff1681526020018673ffffffffffffffffffffffffffffffffffffffff1681526020018581526020018481526020016000600281111561139057fe5b60ff168152506002600088815260200190815260200160002060008201518160000160006101000a81548173ffffffffffffffffffffffffffffffffffffffff021916908373ffffffffffffffffffffffffffffffffffffffff16021790555060208201518160010160006101000a81548173ffffffffffffffffffffffffffffffffffffffff021916908373ffffffffffffffffffffffffffffffffffffffff160217905550604082015181600201556060820151816003015560808201518160040160006101000a81548160ff021916908360ff160217905550905050600360008673ffffffffffffffffffffffffffffffffffffffff1673ffffffffffffffffffffffffffffffffffffffff16815260200190815260200160002086908060018154018082558091505060019003906000526020600020016000909190919091505550505050505056fe4f6e6c7920737065636966696320636f6e74726163742063616e20616363657373a264697066735822122021f7dc10abb72a7459ac7fde0125fd414463899f66af705161c05558ec19ba1064736f6c63430006000033",
  "source": "pragma solidity ^0.6.0;\nimport \"../lib/SafeMath.sol\";\nimport \"../container/Contained.sol\";\n\n\n/**\n    @title LoanDB\n    @dev Stores all the loan details.\n    @author leodinh\n */\ncontract LoanDB is Contained {\n    using SafeMath for uint256;\n    enum LoanState {REQUESTED, FUNDED, PAID}\n    struct debt {\n        address lender;\n        address borrower;\n        uint256 amountOfDebt;\n        uint256 interest;\n        uint8 loanState;\n    }\n\n    mapping(bytes32 => debt) private debtInfo;\n    mapping(address => bytes32[]) private debtHistory;\n    mapping(address => bytes32[]) private lendHistory;\n\n    function addDebt(\n        bytes32 debtNo,\n        address _borrower,\n        uint256 _amountOfDebt,\n        uint256 _interest\n    ) external onlyContract(CONTRACT_LOAN_MANAGER) {\n        debtInfo[debtNo] = debt(\n            address(0),\n            _borrower,\n            _amountOfDebt,\n            _interest,\n            uint8(LoanState.REQUESTED)\n        );\n        debtHistory[_borrower].push(debtNo);\n    }\n\n    function updateLender(bytes32 debtNo, address _lender)\n        external\n        onlyContract(CONTRACT_LOAN_MANAGER)\n    {\n        debtInfo[debtNo].lender = _lender;\n        debtInfo[debtNo].loanState = uint8(LoanState.FUNDED);\n        debtHistory[_lender].push(debtNo);\n    }\n\n    function completeDebt(bytes32 debtNo)\n        external\n        onlyContract(CONTRACT_LOAN_MANAGER)\n    {\n        debtInfo[debtNo].loanState = uint8(LoanState.PAID);\n    }\n\n    function getLenderofDebt(bytes32 debtNo) external view returns (address) {\n        return debtInfo[debtNo].lender;\n    }\n\n    function getBorrowerofDebt(bytes32 debtNo) external view returns (address) {\n        return debtInfo[debtNo].borrower;\n    }\n\n    function getAmountofDebt(bytes32 debtNo) external view returns (uint256) {\n        return debtInfo[debtNo].amountOfDebt;\n    }\n\n    function getInterestofDebt(bytes32 debtNo) external view returns (uint256) {\n        return debtInfo[debtNo].interest;\n    }\n\n    function getStateofDebt(bytes32 debtNo) external view returns (uint8) {\n        return debtInfo[debtNo].loanState;\n    }\n\n    function getDebtHistory(address _address)\n        external\n        view\n        returns (bytes32[] memory)\n    {\n        return debtHistory[_address];\n    }\n\n    function getLendHistory(address _address)\n        external\n        view\n        returns (bytes32[] memory)\n    {\n        return lendHistory[_address];\n    }\n}\n",
  "sourcePath": "/home/leo/Documents/dapp/microfinance-dapp/contracts/database/LoanDB.sol",
  "compiler": {
    "name": "solc",
    "version": "0.6.0+commit.26b70077.Emscripten.clang"
  },
  "schemaVersion": "3.0.23",
  "updatedAt": "2020-04-15T21:18:25.403Z",
  "networkType": "ethereum",
  "devdoc": {
    "author": "leodinh",
    "details": "Stores all the loan details.",
    "methods": {},
    "title": "LoanDB"
  },
  "userdoc": {
    "methods": {}
  }
}