{
  "contractName": "LoanManager",
  "abi": [
    {
      "anonymous": false,
      "inputs": [
        {
          "indexed": false,
          "internalType": "bytes32",
          "name": "debtNo",
          "type": "bytes32"
        },
        {
          "indexed": false,
          "internalType": "address",
          "name": "_lender",
          "type": "address"
        }
      ],
      "name": "Funded",
      "type": "event"
    },
    {
      "anonymous": false,
      "inputs": [
        {
          "indexed": false,
          "internalType": "bytes32",
          "name": "debtNo",
          "type": "bytes32"
        }
      ],
      "name": "PaidBack",
      "type": "event"
    },
    {
      "anonymous": false,
      "inputs": [
        {
          "indexed": false,
          "internalType": "bytes32",
          "name": "debtNo",
          "type": "bytes32"
        },
        {
          "indexed": false,
          "internalType": "address",
          "name": "_owner",
          "type": "address"
        },
        {
          "indexed": false,
          "internalType": "uint256",
          "name": "_amount",
          "type": "uint256"
        }
      ],
      "name": "Requested",
      "type": "event"
    },
    {
      "inputs": [],
      "name": "container",
      "outputs": [
        {
          "internalType": "contract BaseContainer",
          "name": "",
          "type": "address"
        }
      ],
      "stateMutability": "view",
      "type": "function",
      "constant": true
    },
    {
      "inputs": [],
      "name": "owner",
      "outputs": [
        {
          "internalType": "address payable",
          "name": "",
          "type": "address"
        }
      ],
      "stateMutability": "view",
      "type": "function",
      "constant": true
    },
    {
      "inputs": [
        {
          "internalType": "contract BaseContainer",
          "name": "_container",
          "type": "address"
        }
      ],
      "name": "setContainerEntry",
      "outputs": [],
      "stateMutability": "nonpayable",
      "type": "function"
    },
    {
      "inputs": [
        {
          "internalType": "address payable",
          "name": "newOwner",
          "type": "address"
        }
      ],
      "name": "transferOwnership",
      "outputs": [],
      "stateMutability": "nonpayable",
      "type": "function"
    },
    {
      "inputs": [],
      "name": "init",
      "outputs": [],
      "stateMutability": "nonpayable",
      "type": "function"
    },
    {
      "inputs": [
        {
          "internalType": "uint104",
          "name": "_amount",
          "type": "uint104"
        }
      ],
      "name": "setRewardToken",
      "outputs": [],
      "stateMutability": "nonpayable",
      "type": "function"
    },
    {
      "inputs": [
        {
          "internalType": "bytes32",
          "name": "_debtNo",
          "type": "bytes32"
        },
        {
          "internalType": "address",
          "name": "_borrower",
          "type": "address"
        },
        {
          "internalType": "uint256",
          "name": "_amount",
          "type": "uint256"
        }
      ],
      "name": "requestLoan",
      "outputs": [],
      "stateMutability": "nonpayable",
      "type": "function"
    },
    {
      "inputs": [
        {
          "internalType": "bytes32",
          "name": "_debtNo",
          "type": "bytes32"
        },
        {
          "internalType": "address",
          "name": "_sender",
          "type": "address"
        }
      ],
      "name": "lendLoan",
      "outputs": [],
      "stateMutability": "payable",
      "type": "function",
      "payable": true
    },
    {
      "inputs": [
        {
          "internalType": "bytes32",
          "name": "_debtNo",
          "type": "bytes32"
        },
        {
          "internalType": "address",
          "name": "_sender",
          "type": "address"
        }
      ],
      "name": "payLoan",
      "outputs": [],
      "stateMutability": "payable",
      "type": "function",
      "payable": true
    }
  ],
  "bytecode": "0x6080604052600a600260006101000a8154816cffffffffffffffffffffffffff02191690836cffffffffffffffffffffffffff160217905550336000806101000a81548173ffffffffffffffffffffffffffffffffffffffff021916908373ffffffffffffffffffffffffffffffffffffffff1602179055506126c8806100876000396000f3fe6080604052600436106100865760003560e01c8063b63ae3bd11610059578063b63ae3bd146101ef578063e1c7392a1461023d578063f2fde38b14610254578063f6adc754146102a5578063f9a57f61146102ef57610086565b80630ab016471461008b5780638da5cb5b146100dc57806390e534a71461013357806399b53cbe1461018a575b600080fd5b34801561009757600080fd5b506100da600480360360208110156100ae57600080fd5b81019080803573ffffffffffffffffffffffffffffffffffffffff16906020019092919050505061033d565b005b3480156100e857600080fd5b506100f16103d7565b604051808273ffffffffffffffffffffffffffffffffffffffff1673ffffffffffffffffffffffffffffffffffffffff16815260200191505060405180910390f35b34801561013f57600080fd5b506101486103fc565b604051808273ffffffffffffffffffffffffffffffffffffffff1673ffffffffffffffffffffffffffffffffffffffff16815260200191505060405180910390f35b34801561019657600080fd5b506101ed600480360360608110156101ad57600080fd5b8101908080359060200190929190803573ffffffffffffffffffffffffffffffffffffffff16906020019092919080359060200190929190505050610422565b005b61023b6004803603604081101561020557600080fd5b8101908080359060200190929190803573ffffffffffffffffffffffffffffffffffffffff169060200190929190505050610a21565b005b34801561024957600080fd5b50610252611447565b005b34801561026057600080fd5b506102a36004803603602081101561027757600080fd5b81019080803573ffffffffffffffffffffffffffffffffffffffff169060200190929190505050611937565b005b3480156102b157600080fd5b506102ed600480360360208110156102c857600080fd5b8101908080356cffffffffffffffffffffffffff169060200190929190505050611a05565b005b61033b6004803603604081101561030557600080fd5b8101908080359060200190929190803573ffffffffffffffffffffffffffffffffffffffff169060200190929190505050611a91565b005b6000809054906101000a900473ffffffffffffffffffffffffffffffffffffffff1673ffffffffffffffffffffffffffffffffffffffff163373ffffffffffffffffffffffffffffffffffffffff161461039357fe5b80600160006101000a81548173ffffffffffffffffffffffffffffffffffffffff021916908373ffffffffffffffffffffffffffffffffffffffff16021790555050565b6000809054906101000a900473ffffffffffffffffffffffffffffffffffffffff1681565b600160009054906101000a900473ffffffffffffffffffffffffffffffffffffffff1681565b600073ffffffffffffffffffffffffffffffffffffffff16600160009054906101000a900473ffffffffffffffffffffffffffffffffffffffff1673ffffffffffffffffffffffffffffffffffffffff1614156104e7576040517f08c379a000000000000000000000000000000000000000000000000000000000815260040180806020018281038252600c8152602001807f4e6f20436f6e7461696e6572000000000000000000000000000000000000000081525060200191505060405180910390fd5b600160009054906101000a900473ffffffffffffffffffffffffffffffffffffffff1673ffffffffffffffffffffffffffffffffffffffff163373ffffffffffffffffffffffffffffffffffffffff16146105aa576040517f08c379a00000000000000000000000000000000000000000000000000000000081526004018080602001828103825260168152602001807f4f6e6c79207468726f75676820436f6e7461696e65720000000000000000000081525060200191505060405180910390fd5b662386f26fc1000081101561060a576040517f08c379a00000000000000000000000000000000000000000000000000000000081526004018080602001828103825260218152602001806126516021913960400191505060405180910390fd5b600073ffffffffffffffffffffffffffffffffffffffff16600360009054906101000a900473ffffffffffffffffffffffffffffffffffffffff1673ffffffffffffffffffffffffffffffffffffffff16639b36d575856040518263ffffffff1660e01b81526004018082815260200191505060206040518083038186803b15801561069557600080fd5b505afa1580156106a9573d6000803e3d6000fd5b505050506040513d60208110156106bf57600080fd5b810190808051906020019092919050505073ffffffffffffffffffffffffffffffffffffffff1614610759576040517f08c379a000000000000000000000000000000000000000000000000000000000815260040180806020018281038252600b8152602001807f646562742065786973747300000000000000000000000000000000000000000081525060200191505060405180910390fd5b60001515600360009054906101000a900473ffffffffffffffffffffffffffffffffffffffff1673ffffffffffffffffffffffffffffffffffffffff16634aa43393846040518263ffffffff1660e01b8152600401808273ffffffffffffffffffffffffffffffffffffffff1673ffffffffffffffffffffffffffffffffffffffff16815260200191505060206040518083038186803b1580156107fc57600080fd5b505afa158015610810573d6000803e3d6000fd5b505050506040513d602081101561082657600080fd5b81019080805190602001909291905050501515146108ac576040517f08c379a00000000000000000000000000000000000000000000000000000000081526004018080602001828103825260118152602001807f616c72656164792068617665204465627400000000000000000000000000000081525060200191505060405180910390fd5b60006108d560646108c760028561243290919063ffffffff16565b6124b890919063ffffffff16565b9050600360009054906101000a900473ffffffffffffffffffffffffffffffffffffffff1673ffffffffffffffffffffffffffffffffffffffff1663fdd1b9d9858585856040518563ffffffff1660e01b8152600401808581526020018473ffffffffffffffffffffffffffffffffffffffff1673ffffffffffffffffffffffffffffffffffffffff168152602001838152602001828152602001945050505050600060405180830381600087803b15801561099057600080fd5b505af11580156109a4573d6000803e3d6000fd5b505050507fe74b15955560ba6e21cd0c19af10edc840d1d3cdba5a7f433b17a3ab3d5c7019848484604051808481526020018373ffffffffffffffffffffffffffffffffffffffff1673ffffffffffffffffffffffffffffffffffffffff168152602001828152602001935050505060405180910390a150505050565b600073ffffffffffffffffffffffffffffffffffffffff16600160009054906101000a900473ffffffffffffffffffffffffffffffffffffffff1673ffffffffffffffffffffffffffffffffffffffff161415610ae6576040517f08c379a000000000000000000000000000000000000000000000000000000000815260040180806020018281038252600c8152602001807f4e6f20436f6e7461696e6572000000000000000000000000000000000000000081525060200191505060405180910390fd5b600160009054906101000a900473ffffffffffffffffffffffffffffffffffffffff1673ffffffffffffffffffffffffffffffffffffffff163373ffffffffffffffffffffffffffffffffffffffff1614610ba9576040517f08c379a00000000000000000000000000000000000000000000000000000000081526004018080602001828103825260168152602001807f4f6e6c79207468726f75676820436f6e7461696e65720000000000000000000081525060200191505060405180910390fd5b6000600360009054906101000a900473ffffffffffffffffffffffffffffffffffffffff1673ffffffffffffffffffffffffffffffffffffffff1663721d1902846040518263ffffffff1660e01b81526004018082815260200191505060206040518083038186803b158015610c1e57600080fd5b505afa158015610c32573d6000803e3d6000fd5b505050506040513d6020811015610c4857600080fd5b810190808051906020019092919050505090506000600360009054906101000a900473ffffffffffffffffffffffffffffffffffffffff1673ffffffffffffffffffffffffffffffffffffffff16639b36d575856040518263ffffffff1660e01b81526004018082815260200191505060206040518083038186803b158015610cd057600080fd5b505afa158015610ce4573d6000803e3d6000fd5b505050506040513d6020811015610cfa57600080fd5b8101908080519060200190929190505050905060006002811115610d1a57fe5b600360009054906101000a900473ffffffffffffffffffffffffffffffffffffffff1673ffffffffffffffffffffffffffffffffffffffff16630f2e9ef8866040518263ffffffff1660e01b81526004018082815260200191505060206040518083038186803b158015610d8d57600080fd5b505afa158015610da1573d6000803e3d6000fd5b505050506040513d6020811015610db757600080fd5b810190808051906020019092919050505060ff1614610e3e576040517f08c379a00000000000000000000000000000000000000000000000000000000081526004018080602001828103825260168152602001807f4e6f7420696e207265717565737465642073746174650000000000000000000081525060200191505060405180910390fd5b81341015610eb4576040517f08c379a00000000000000000000000000000000000000000000000000000000081526004018080602001828103825260118152602001807f4e6f7420656e6f75676820616d6f756e7400000000000000000000000000000081525060200191505060405180910390fd5b600073ffffffffffffffffffffffffffffffffffffffff168173ffffffffffffffffffffffffffffffffffffffff161415610f57576040517f08c379a00000000000000000000000000000000000000000000000000000000081526004018080602001828103825260148152602001807f44656274206973206e6f74206578697374696e6700000000000000000000000081525060200191505060405180910390fd5b60001515600360009054906101000a900473ffffffffffffffffffffffffffffffffffffffff1673ffffffffffffffffffffffffffffffffffffffff16634aa43393836040518263ffffffff1660e01b8152600401808273ffffffffffffffffffffffffffffffffffffffff1673ffffffffffffffffffffffffffffffffffffffff16815260200191505060206040518083038186803b158015610ffa57600080fd5b505afa15801561100e573d6000803e3d6000fd5b505050506040513d602081101561102457600080fd5b81019080805190602001909291905050501515146110aa576040517f08c379a00000000000000000000000000000000000000000000000000000000081526004018080602001828103825260118152602001807f616c72656164792068617665204465627400000000000000000000000000000081525060200191505060405180910390fd5b600560009054906101000a900473ffffffffffffffffffffffffffffffffffffffff1673ffffffffffffffffffffffffffffffffffffffff1663f340fa0134836040518363ffffffff1660e01b8152600401808273ffffffffffffffffffffffffffffffffffffffff1673ffffffffffffffffffffffffffffffffffffffff1681526020019150506000604051808303818588803b15801561114b57600080fd5b505af115801561115f573d6000803e3d6000fd5b5050505050600360009054906101000a900473ffffffffffffffffffffffffffffffffffffffff1673ffffffffffffffffffffffffffffffffffffffff16637a3b5db685856040518363ffffffff1660e01b8152600401808381526020018273ffffffffffffffffffffffffffffffffffffffff1673ffffffffffffffffffffffffffffffffffffffff16815260200192505050600060405180830381600087803b15801561120d57600080fd5b505af1158015611221573d6000803e3d6000fd5b50505050600360009054906101000a900473ffffffffffffffffffffffffffffffffffffffff1673ffffffffffffffffffffffffffffffffffffffff1663776052e08260016040518363ffffffff1660e01b8152600401808373ffffffffffffffffffffffffffffffffffffffff1673ffffffffffffffffffffffffffffffffffffffff1681526020018215151515815260200192505050600060405180830381600087803b1580156112d357600080fd5b505af11580156112e7573d6000803e3d6000fd5b50505050600460009054906101000a900473ffffffffffffffffffffffffffffffffffffffff1673ffffffffffffffffffffffffffffffffffffffff166343d7cce684600260009054906101000a90046cffffffffffffffffffffffffff166040518363ffffffff1660e01b8152600401808373ffffffffffffffffffffffffffffffffffffffff1673ffffffffffffffffffffffffffffffffffffffff168152602001826cffffffffffffffffffffffffff16815260200192505050600060405180830381600087803b1580156113be57600080fd5b505af11580156113d2573d6000803e3d6000fd5b505050507feb6f0438fbf469284101736c2fbab1284e8afb109fba6921fcbc7a6faf6d6c608484604051808381526020018273ffffffffffffffffffffffffffffffffffffffff1673ffffffffffffffffffffffffffffffffffffffff1681526020019250505060405180910390a150505050565b6000809054906101000a900473ffffffffffffffffffffffffffffffffffffffff1673ffffffffffffffffffffffffffffffffffffffff163373ffffffffffffffffffffffffffffffffffffffff161461149d57fe5b600160009054906101000a900473ffffffffffffffffffffffffffffffffffffffff1673ffffffffffffffffffffffffffffffffffffffff1663358177736040518060400160405280600681526020017f4c6f616e444200000000000000000000000000000000000000000000000000008152506040518263ffffffff1660e01b81526004018080602001828103825283818151815260200191508051906020019080838360005b83811015611560578082015181840152602081019050611545565b50505050905090810190601f16801561158d5780820380516001836020036101000a031916815260200191505b509250505060206040518083038186803b1580156115aa57600080fd5b505afa1580156115be573d6000803e3d6000fd5b505050506040513d60208110156115d457600080fd5b8101908080519060200190929190505050600360006101000a81548173ffffffffffffffffffffffffffffffffffffffff021916908373ffffffffffffffffffffffffffffffffffffffff160217905550600160009054906101000a900473ffffffffffffffffffffffffffffffffffffffff1673ffffffffffffffffffffffffffffffffffffffff1663358177736040518060400160405280600a81526020017f4865617274546f6b656e000000000000000000000000000000000000000000008152506040518263ffffffff1660e01b81526004018080602001828103825283818151815260200191508051906020019080838360005b838110156116e85780820151818401526020810190506116cd565b50505050905090810190601f1680156117155780820380516001836020036101000a031916815260200191505b509250505060206040518083038186803b15801561173257600080fd5b505afa158015611746573d6000803e3d6000fd5b505050506040513d602081101561175c57600080fd5b8101908080519060200190929190505050600460006101000a81548173ffffffffffffffffffffffffffffffffffffffff021916908373ffffffffffffffffffffffffffffffffffffffff160217905550600160009054906101000a900473ffffffffffffffffffffffffffffffffffffffff1673ffffffffffffffffffffffffffffffffffffffff1663358177736040518060400160405280600681526020017f57616c6c657400000000000000000000000000000000000000000000000000008152506040518263ffffffff1660e01b81526004018080602001828103825283818151815260200191508051906020019080838360005b83811015611870578082015181840152602081019050611855565b50505050905090810190601f16801561189d5780820380516001836020036101000a031916815260200191505b509250505060206040518083038186803b1580156118ba57600080fd5b505afa1580156118ce573d6000803e3d6000fd5b505050506040513d60208110156118e457600080fd5b8101908080519060200190929190505050600560006101000a81548173ffffffffffffffffffffffffffffffffffffffff021916908373ffffffffffffffffffffffffffffffffffffffff160217905550565b6000809054906101000a900473ffffffffffffffffffffffffffffffffffffffff1673ffffffffffffffffffffffffffffffffffffffff163373ffffffffffffffffffffffffffffffffffffffff161461198d57fe5b600073ffffffffffffffffffffffffffffffffffffffff168173ffffffffffffffffffffffffffffffffffffffff1614611a0257806000806101000a81548173ffffffffffffffffffffffffffffffffffffffff021916908373ffffffffffffffffffffffffffffffffffffffff1602179055505b50565b6000809054906101000a900473ffffffffffffffffffffffffffffffffffffffff1673ffffffffffffffffffffffffffffffffffffffff163373ffffffffffffffffffffffffffffffffffffffff1614611a5b57fe5b80600260006101000a8154816cffffffffffffffffffffffffff02191690836cffffffffffffffffffffffffff16021790555050565b600073ffffffffffffffffffffffffffffffffffffffff16600160009054906101000a900473ffffffffffffffffffffffffffffffffffffffff1673ffffffffffffffffffffffffffffffffffffffff161415611b56576040517f08c379a000000000000000000000000000000000000000000000000000000000815260040180806020018281038252600c8152602001807f4e6f20436f6e7461696e6572000000000000000000000000000000000000000081525060200191505060405180910390fd5b600160009054906101000a900473ffffffffffffffffffffffffffffffffffffffff1673ffffffffffffffffffffffffffffffffffffffff163373ffffffffffffffffffffffffffffffffffffffff1614611c19576040517f08c379a00000000000000000000000000000000000000000000000000000000081526004018080602001828103825260168152602001807f4f6e6c79207468726f75676820436f6e7461696e65720000000000000000000081525060200191505060405180910390fd5b6000611d88600360009054906101000a900473ffffffffffffffffffffffffffffffffffffffff1673ffffffffffffffffffffffffffffffffffffffff1663fafa084d856040518263ffffffff1660e01b81526004018082815260200191505060206040518083038186803b158015611c9157600080fd5b505afa158015611ca5573d6000803e3d6000fd5b505050506040513d6020811015611cbb57600080fd5b8101908080519060200190929190505050600360009054906101000a900473ffffffffffffffffffffffffffffffffffffffff1673ffffffffffffffffffffffffffffffffffffffff1663721d1902866040518263ffffffff1660e01b81526004018082815260200191505060206040518083038186803b158015611d3f57600080fd5b505afa158015611d53573d6000803e3d6000fd5b505050506040513d6020811015611d6957600080fd5b810190808051906020019092919050505061250290919063ffffffff16565b905080341015611e00576040517f08c379a00000000000000000000000000000000000000000000000000000000081526004018080602001828103825260118152602001807f4e6f7420656e6f75676820616d6f756e7400000000000000000000000000000081525060200191505060405180910390fd5b6000811415611e77576040517f08c379a00000000000000000000000000000000000000000000000000000000081526004018080602001828103825260148152602001807f44656274206973206e6f74206578697374696e6700000000000000000000000081525060200191505060405180910390fd5b60016002811115611e8457fe5b600360009054906101000a900473ffffffffffffffffffffffffffffffffffffffff1673ffffffffffffffffffffffffffffffffffffffff16630f2e9ef8856040518263ffffffff1660e01b81526004018082815260200191505060206040518083038186803b158015611ef757600080fd5b505afa158015611f0b573d6000803e3d6000fd5b505050506040513d6020811015611f2157600080fd5b810190808051906020019092919050505060ff1614611fa8576040517f08c379a00000000000000000000000000000000000000000000000000000000081526004018080602001828103825260138152602001807f4e6f7420696e2066756e6465642073746174650000000000000000000000000081525060200191505060405180910390fd5b6000600360009054906101000a900473ffffffffffffffffffffffffffffffffffffffff1673ffffffffffffffffffffffffffffffffffffffff166314ba0aa8856040518263ffffffff1660e01b81526004018082815260200191505060206040518083038186803b15801561201d57600080fd5b505afa158015612031573d6000803e3d6000fd5b505050506040513d602081101561204757600080fd5b81019080805190602001909291905050509050600073ffffffffffffffffffffffffffffffffffffffff168173ffffffffffffffffffffffffffffffffffffffff1614156120fd576040517f08c379a00000000000000000000000000000000000000000000000000000000081526004018080602001828103825260148152602001807f446f6573206e6f742068617665206c656e64657200000000000000000000000081525060200191505060405180910390fd5b600560009054906101000a900473ffffffffffffffffffffffffffffffffffffffff1673ffffffffffffffffffffffffffffffffffffffff1663f340fa0134836040518363ffffffff1660e01b8152600401808273ffffffffffffffffffffffffffffffffffffffff1673ffffffffffffffffffffffffffffffffffffffff1681526020019150506000604051808303818588803b15801561219e57600080fd5b505af11580156121b2573d6000803e3d6000fd5b5050505050600360009054906101000a900473ffffffffffffffffffffffffffffffffffffffff1673ffffffffffffffffffffffffffffffffffffffff1663f192eaf0856040518263ffffffff1660e01b815260040180828152602001915050600060405180830381600087803b15801561222c57600080fd5b505af1158015612240573d6000803e3d6000fd5b50505050600460009054906101000a900473ffffffffffffffffffffffffffffffffffffffff1673ffffffffffffffffffffffffffffffffffffffff166343d7cce684600260009054906101000a90046cffffffffffffffffffffffffff166040518363ffffffff1660e01b8152600401808373ffffffffffffffffffffffffffffffffffffffff1673ffffffffffffffffffffffffffffffffffffffff168152602001826cffffffffffffffffffffffffff16815260200192505050600060405180830381600087803b15801561231757600080fd5b505af115801561232b573d6000803e3d6000fd5b50505050600360009054906101000a900473ffffffffffffffffffffffffffffffffffffffff1673ffffffffffffffffffffffffffffffffffffffff1663776052e08460006040518363ffffffff1660e01b8152600401808373ffffffffffffffffffffffffffffffffffffffff1673ffffffffffffffffffffffffffffffffffffffff1681526020018215151515815260200192505050600060405180830381600087803b1580156123dd57600080fd5b505af11580156123f1573d6000803e3d6000fd5b505050507f33108f2f43fc19a4394a503be90cb9805fcf7ffbd88f1a21a2f401d371271e52846040518082815260200191505060405180910390a150505050565b60008083141561244557600090506124b2565b600082840290508284828161245657fe5b04146124ad576040517f08c379a00000000000000000000000000000000000000000000000000000000081526004018080602001828103825260218152602001806126726021913960400191505060405180910390fd5b809150505b92915050565b60006124fa83836040518060400160405280601a81526020017f536166654d6174683a206469766973696f6e206279207a65726f00000000000081525061258a565b905092915050565b600080828401905083811015612580576040517f08c379a000000000000000000000000000000000000000000000000000000000815260040180806020018281038252601b8152602001807f536166654d6174683a206164646974696f6e206f766572666c6f77000000000081525060200191505060405180910390fd5b8091505092915050565b60008083118290612636576040517f08c379a00000000000000000000000000000000000000000000000000000000081526004018080602001828103825283818151815260200191508051906020019080838360005b838110156125fb5780820151818401526020810190506125e0565b50505050905090810190601f1680156126285780820380516001836020036101000a031916815260200191505b509250505060405180910390fd5b50600083858161264257fe5b04905080915050939250505056fe54686520616d6f756e7420697320746f6f20736d616c6c20746f20626f72726f77536166654d6174683a206d756c7469706c69636174696f6e206f766572666c6f77a2646970667358221220ad6c90b10f2fd41b62ac86b9e7c224f8534253389aae16854e84a41bcb64ae5564736f6c63430006000033",
  "source": "pragma solidity ^0.6.0;\nimport \"../lib/SafeMath.sol\";\nimport \"../database/LoanDB.sol\";\nimport \"../database/HeartToken.sol\";\nimport \"../container/Contained.sol\";\nimport \"./Wallet.sol\";\n\n\ncontract LoanManager is Contained {\n    using SafeMath for uint256;\n    enum LoanState {REQUESTED, FUNDED, PAID}\n    event Requested(bytes32 debtNo, address _owner, uint256 _amount);\n    event Funded(bytes32 debtNo, address _lender);\n    event PaidBack(bytes32 debtNo);\n    uint104 rewardToken = 10;\n    LoanDB loandb;\n    HeartToken heartToken;\n    Wallet wallet;\n\n    function init() external onlyOwner {\n        loandb = LoanDB(container.getContract(CONTRACT_LOAN_DB));\n        heartToken = HeartToken(payable(container.getContract(CONTRACT_HEART_TOKEN)));\n        wallet = Wallet(container.getContract(CONTRACT_WALLET));\n    }\n\n    function setRewardToken(uint104 _amount) external onlyOwner {\n        rewardToken = _amount;\n    }\n\n    function requestLoan(bytes32 _debtNo, address _borrower, uint256 _amount)\n        external\n        onlyContained\n    {\n        require(_amount >= 1e16 wei, \"The amount is too small to borrow\");\n        require(loandb.getBorrowerofDebt(_debtNo) == address(0), \"debt exists\");\n        require(loandb.checkHaveDebt(_borrower) == false,\"already have Debt\");\n        uint256 _interest = (_amount.mul(2)).div(100);\n        loandb.addDebt(_debtNo, _borrower, _amount, _interest);\n        emit Requested(_debtNo, _borrower, _amount);\n    }\n\n    function lendLoan(bytes32 _debtNo, address _sender)\n        external\n        payable\n        onlyContained\n    {\n        uint256 _amount = loandb.getAmountofDebt(_debtNo);\n        address _borrower = loandb.getBorrowerofDebt(_debtNo);\n        require(loandb.getStateofDebt(_debtNo) == uint(LoanState.REQUESTED),\"Not in requested state\");\n        require(msg.value >= _amount, \"Not enough amount\");\n        require(_borrower != address(0), \"Debt is not existing\");\n        require(loandb.checkHaveDebt(_borrower) == false,\"already have Debt\");\n        wallet.deposit.value(msg.value)(_borrower);\n        loandb.updateLender(_debtNo, _sender);\n        loandb.setHaveDebt(_borrower,true);\n        heartToken.getToken(_sender, rewardToken);\n        emit Funded(_debtNo, _sender);\n    }\n\n    function payLoan(bytes32 _debtNo, address _sender)\n        external\n        payable\n        onlyContained\n    {\n        uint256 _amount = loandb.getAmountofDebt(_debtNo).add(\n            loandb.getInterestofDebt(_debtNo)\n        );\n        require(msg.value >= _amount, \"Not enough amount\");\n        require(_amount != 0, \"Debt is not existing\");\n        require(loandb.getStateofDebt(_debtNo) == uint(LoanState.FUNDED),\"Not in funded state\");\n        address _lender = loandb.getLenderofDebt(_debtNo);\n        require(_lender != address(0), \"Does not have lender\");\n        wallet.deposit.value(msg.value)(_lender);\n        loandb.completeDebt(_debtNo);\n        heartToken.getToken(_sender, rewardToken);\n        loandb.setHaveDebt(_sender,false);\n        emit PaidBack(_debtNo);\n    }\n}\n",
  "sourcePath": "/home/leo/Documents/dapp/microfinance-dapp/contracts/modules/LoanManager.sol",
  "compiler": {
    "name": "solc",
    "version": "0.6.0+commit.26b70077.Emscripten.clang"
  },
  "schemaVersion": "3.0.23",
  "updatedAt": "2020-04-20T21:56:06.424Z",
  "networkType": "ethereum",
  "devdoc": {
    "methods": {}
  },
  "userdoc": {
    "methods": {}
  }
}