{
  "contractName": "MicroFinance",
  "abi": [
    {
      "constant": true,
      "inputs": [
        {
          "name": "",
          "type": "address"
        }
      ],
      "name": "lenderWallet",
      "outputs": [
        {
          "name": "",
          "type": "uint256"
        }
      ],
      "payable": false,
      "stateMutability": "view",
      "type": "function"
    },
    {
      "constant": true,
      "inputs": [
        {
          "name": "",
          "type": "address"
        }
      ],
      "name": "debtorWallet",
      "outputs": [
        {
          "name": "",
          "type": "uint256"
        }
      ],
      "payable": false,
      "stateMutability": "view",
      "type": "function"
    },
    {
      "constant": false,
      "inputs": [
        {
          "name": "amount",
          "type": "uint256"
        }
      ],
      "name": "request",
      "outputs": [],
      "payable": false,
      "stateMutability": "nonpayable",
      "type": "function"
    },
    {
      "constant": false,
      "inputs": [
        {
          "name": "to",
          "type": "address"
        }
      ],
      "name": "lend",
      "outputs": [],
      "payable": true,
      "stateMutability": "payable",
      "type": "function"
    },
    {
      "constant": false,
      "inputs": [],
      "name": "payBack",
      "outputs": [],
      "payable": true,
      "stateMutability": "payable",
      "type": "function"
    },
    {
      "constant": false,
      "inputs": [
        {
          "name": "amount",
          "type": "uint256"
        }
      ],
      "name": "withDrawDebtor",
      "outputs": [],
      "payable": false,
      "stateMutability": "nonpayable",
      "type": "function"
    },
    {
      "constant": false,
      "inputs": [
        {
          "name": "amount",
          "type": "uint256"
        }
      ],
      "name": "withDrawLender",
      "outputs": [],
      "payable": false,
      "stateMutability": "nonpayable",
      "type": "function"
    },
    {
      "constant": true,
      "inputs": [],
      "name": "getDebtorsList",
      "outputs": [
        {
          "name": "",
          "type": "address[]"
        }
      ],
      "payable": false,
      "stateMutability": "view",
      "type": "function"
    },
    {
      "constant": true,
      "inputs": [],
      "name": "getLenderFromDebtInfo",
      "outputs": [
        {
          "name": "",
          "type": "address"
        }
      ],
      "payable": false,
      "stateMutability": "view",
      "type": "function"
    },
    {
      "constant": true,
      "inputs": [],
      "name": "getDebtFromDebtInfo",
      "outputs": [
        {
          "name": "",
          "type": "uint256"
        }
      ],
      "payable": false,
      "stateMutability": "view",
      "type": "function"
    },
    {
      "constant": true,
      "inputs": [],
      "name": "getInterestFromDebtInfo",
      "outputs": [
        {
          "name": "",
          "type": "uint256"
        }
      ],
      "payable": false,
      "stateMutability": "view",
      "type": "function"
    }
  ],
  "bytecode": "0x608060405234801561001057600080fd5b5061169b806100206000396000f3fe60806040526004361061009c5760003560e01c80638e55e9b2116100645780638e55e9b2146101d257806390554d8f14610229578063b656f2e314610264578063d2965511146102a8578063d845a4b31461030d578063e5e54969146103485761009c565b8063019f64cc146100a157806316d80311146100ab5780631982c677146101175780633999af941461017c5780634fede283146101a7575b600080fd5b6100a9610383565b005b3480156100b757600080fd5b506100c0610755565b6040518080602001828103825283818151815260200191508051906020019060200280838360005b838110156101035780820151818401526020810190506100e8565b505050509050019250505060405180910390f35b34801561012357600080fd5b506101666004803603602081101561013a57600080fd5b81019080803573ffffffffffffffffffffffffffffffffffffffff169060200190929190505050610820565b6040518082815260200191505060405180910390f35b34801561018857600080fd5b50610191610838565b6040518082815260200191505060405180910390f35b3480156101b357600080fd5b506101bc610881565b6040518082815260200191505060405180910390f35b3480156101de57600080fd5b506101e76108ca565b604051808273ffffffffffffffffffffffffffffffffffffffff1673ffffffffffffffffffffffffffffffffffffffff16815260200191505060405180910390f35b34801561023557600080fd5b506102626004803603602081101561024c57600080fd5b8101908080359060200190929190505050610933565b005b6102a66004803603602081101561027a57600080fd5b81019080803573ffffffffffffffffffffffffffffffffffffffff169060200190929190505050610acd565b005b3480156102b457600080fd5b506102f7600480360360208110156102cb57600080fd5b81019080803573ffffffffffffffffffffffffffffffffffffffff169060200190929190505050610efa565b6040518082815260200191505060405180910390f35b34801561031957600080fd5b506103466004803603602081101561033057600080fd5b8101908080359060200190929190505050610f12565b005b34801561035457600080fd5b506103816004803603602081101561036b57600080fd5b810190808035906020019092919050505061116b565b005b600073ffffffffffffffffffffffffffffffffffffffff166000803373ffffffffffffffffffffffffffffffffffffffff1673ffffffffffffffffffffffffffffffffffffffff16815260200190815260200160002060000160009054906101000a900473ffffffffffffffffffffffffffffffffffffffff1673ffffffffffffffffffffffffffffffffffffffff161415610487576040517f08c379a00000000000000000000000000000000000000000000000000000000081526004018080602001828103825260148152602001807f646f206e6f74206861766520616e79206465627400000000000000000000000081525060200191505060405180910390fd5b60008060003373ffffffffffffffffffffffffffffffffffffffff1673ffffffffffffffffffffffffffffffffffffffff168152602001908152602001600020600201546000803373ffffffffffffffffffffffffffffffffffffffff1673ffffffffffffffffffffffffffffffffffffffff1681526020019081526020016000206001015401905080341015610586576040517f08c379a00000000000000000000000000000000000000000000000000000000081526004018080602001828103825260118152602001807f6e6f7420656e6f75676874206d6f6e657900000000000000000000000000000081525060200191505060405180910390fd5b60008060003373ffffffffffffffffffffffffffffffffffffffff1673ffffffffffffffffffffffffffffffffffffffff16815260200190815260200160002060000160009054906101000a900473ffffffffffffffffffffffffffffffffffffffff16905061063e34600360008473ffffffffffffffffffffffffffffffffffffffff1673ffffffffffffffffffffffffffffffffffffffff1681526020019081526020016000205461130590919063ffffffff16565b600360008373ffffffffffffffffffffffffffffffffffffffff1673ffffffffffffffffffffffffffffffffffffffff168152602001908152602001600020819055506040518060600160405280600073ffffffffffffffffffffffffffffffffffffffff1681526020016000815260200160008152506000803373ffffffffffffffffffffffffffffffffffffffff1673ffffffffffffffffffffffffffffffffffffffff16815260200190815260200160002060008201518160000160006101000a81548173ffffffffffffffffffffffffffffffffffffffff021916908373ffffffffffffffffffffffffffffffffffffffff16021790555060208201518160010155604082015181600201559050505050565b6060600160003373ffffffffffffffffffffffffffffffffffffffff1673ffffffffffffffffffffffffffffffffffffffff16815260200190815260200160002080548060200260200160405190810160405280929190818152602001828054801561081657602002820191906000526020600020905b8160009054906101000a900473ffffffffffffffffffffffffffffffffffffffff1673ffffffffffffffffffffffffffffffffffffffff16815260200190600101908083116107cc575b5050505050905090565b60036020528060005260406000206000915090505481565b60008060003373ffffffffffffffffffffffffffffffffffffffff1673ffffffffffffffffffffffffffffffffffffffff16815260200190815260200160002060020154905090565b60008060003373ffffffffffffffffffffffffffffffffffffffff1673ffffffffffffffffffffffffffffffffffffffff16815260200190815260200160002060010154905090565b60008060003373ffffffffffffffffffffffffffffffffffffffff1673ffffffffffffffffffffffffffffffffffffffff16815260200190815260200160002060000160009054906101000a900473ffffffffffffffffffffffffffffffffffffffff16905090565b6000600260003373ffffffffffffffffffffffffffffffffffffffff1673ffffffffffffffffffffffffffffffffffffffff168152602001908152602001600020549050818110156109ed576040517f08c379a00000000000000000000000000000000000000000000000000000000081526004018080602001828103825260118152602001807f6e6f7420656e6f75676874206d6f6e657900000000000000000000000000000081525060200191505060405180910390fd5b610a3f82600260003373ffffffffffffffffffffffffffffffffffffffff1673ffffffffffffffffffffffffffffffffffffffff1681526020019081526020016000205461138d90919063ffffffff16565b600260003373ffffffffffffffffffffffffffffffffffffffff1673ffffffffffffffffffffffffffffffffffffffff168152602001908152602001600020819055503373ffffffffffffffffffffffffffffffffffffffff166108fc839081150290604051600060405180830381858888f19350505050158015610ac8573d6000803e3d6000fd5b505050565b600073ffffffffffffffffffffffffffffffffffffffff166000808373ffffffffffffffffffffffffffffffffffffffff1673ffffffffffffffffffffffffffffffffffffffff16815260200190815260200160002060000160009054906101000a900473ffffffffffffffffffffffffffffffffffffffff1673ffffffffffffffffffffffffffffffffffffffff1614610bd0576040517f08c379a00000000000000000000000000000000000000000000000000000000081526004018080602001828103825260128152602001807f61726520616c7265616479206c656e646564000000000000000000000000000081525060200191505060405180910390fd5b60008060008373ffffffffffffffffffffffffffffffffffffffff1673ffffffffffffffffffffffffffffffffffffffff168152602001908152602001600020600101541415610c88576040517f08c379a00000000000000000000000000000000000000000000000000000000081526004018080602001828103825260148152602001807f646f206e6f74206861766520616e79206465627400000000000000000000000081525060200191505060405180910390fd5b6000808273ffffffffffffffffffffffffffffffffffffffff1673ffffffffffffffffffffffffffffffffffffffff16815260200190815260200160002060010154341015610d3f576040517f08c379a00000000000000000000000000000000000000000000000000000000081526004018080602001828103825260108152602001807f6e6f7420656e6f756768206d6f6e65790000000000000000000000000000000081525060200191505060405180910390fd5b336000808373ffffffffffffffffffffffffffffffffffffffff1673ffffffffffffffffffffffffffffffffffffffff16815260200190815260200160002060000160006101000a81548173ffffffffffffffffffffffffffffffffffffffff021916908373ffffffffffffffffffffffffffffffffffffffff160217905550600160003373ffffffffffffffffffffffffffffffffffffffff1673ffffffffffffffffffffffffffffffffffffffff1681526020019081526020016000208190806001815401808255809150509060018203906000526020600020016000909192909190916101000a81548173ffffffffffffffffffffffffffffffffffffffff021916908373ffffffffffffffffffffffffffffffffffffffff16021790555050610eb434600260008473ffffffffffffffffffffffffffffffffffffffff1673ffffffffffffffffffffffffffffffffffffffff1681526020019081526020016000205461130590919063ffffffff16565b600260008373ffffffffffffffffffffffffffffffffffffffff1673ffffffffffffffffffffffffffffffffffffffff1681526020019081526020016000208190555050565b60026020528060005260406000206000915090505481565b600073ffffffffffffffffffffffffffffffffffffffff166000803373ffffffffffffffffffffffffffffffffffffffff1673ffffffffffffffffffffffffffffffffffffffff16815260200190815260200160002060000160009054906101000a900473ffffffffffffffffffffffffffffffffffffffff1673ffffffffffffffffffffffffffffffffffffffff1614611015576040517f08c379a00000000000000000000000000000000000000000000000000000000081526004018080602001828103825260128152602001807f61726520616c7265616479206c656e646564000000000000000000000000000081525060200191505060405180910390fd5b6064811161106e576040517f08c379a000000000000000000000000000000000000000000000000000000000815260040180806020018281038252602181526020018061162e6021913960400191505060405180910390fd5b600061109760646110896002856113d790919063ffffffff16565b61145d90919063ffffffff16565b90506040518060600160405280600073ffffffffffffffffffffffffffffffffffffffff168152602001838152602001828152506000803373ffffffffffffffffffffffffffffffffffffffff1673ffffffffffffffffffffffffffffffffffffffff16815260200190815260200160002060008201518160000160006101000a81548173ffffffffffffffffffffffffffffffffffffffff021916908373ffffffffffffffffffffffffffffffffffffffff16021790555060208201518160010155604082015181600201559050505050565b6000600360003373ffffffffffffffffffffffffffffffffffffffff1673ffffffffffffffffffffffffffffffffffffffff16815260200190815260200160002054905081811015611225576040517f08c379a00000000000000000000000000000000000000000000000000000000081526004018080602001828103825260118152602001807f6e6f7420656e6f75676874206d6f6e657900000000000000000000000000000081525060200191505060405180910390fd5b61127782600360003373ffffffffffffffffffffffffffffffffffffffff1673ffffffffffffffffffffffffffffffffffffffff1681526020019081526020016000205461138d90919063ffffffff16565b600360003373ffffffffffffffffffffffffffffffffffffffff1673ffffffffffffffffffffffffffffffffffffffff168152602001908152602001600020819055503373ffffffffffffffffffffffffffffffffffffffff166108fc839081150290604051600060405180830381858888f19350505050158015611300573d6000803e3d6000fd5b505050565b600080828401905083811015611383576040517f08c379a000000000000000000000000000000000000000000000000000000000815260040180806020018281038252601b8152602001807f536166654d6174683a206164646974696f6e206f766572666c6f77000000000081525060200191505060405180910390fd5b8091505092915050565b60006113cf83836040518060400160405280601e81526020017f536166654d6174683a207375627472616374696f6e206f766572666c6f7700008152506114a7565b905092915050565b6000808314156113ea5760009050611457565b60008284029050828482816113fb57fe5b0414611452576040517f08c379a000000000000000000000000000000000000000000000000000000000815260040180806020018281038252602181526020018061164f6021913960400191505060405180910390fd5b809150505b92915050565b600061149f83836040518060400160405280601a81526020017f536166654d6174683a206469766973696f6e206279207a65726f000000000000815250611567565b905092915050565b6000838311158290611554576040517f08c379a00000000000000000000000000000000000000000000000000000000081526004018080602001828103825283818151815260200191508051906020019080838360005b838110156115195780820151818401526020810190506114fe565b50505050905090810190601f1680156115465780820380516001836020036101000a031916815260200191505b509250505060405180910390fd5b5060008385039050809150509392505050565b60008083118290611613576040517f08c379a00000000000000000000000000000000000000000000000000000000081526004018080602001828103825283818151815260200191508051906020019080838360005b838110156115d85780820151818401526020810190506115bd565b50505050905090810190601f1680156116055780820380516001836020036101000a031916815260200191505b509250505060405180910390fd5b50600083858161161f57fe5b04905080915050939250505056fe74686520616d6f756e7420697320746f6f20736d616c6c20746f20626f72726f77536166654d6174683a206d756c7469706c69636174696f6e206f766572666c6f77a165627a7a72305820b65c7479504e0bc9fee47e7377b79c4fc4e4af94d33307392a4aeb241c0e13eb0029",
  "source": "pragma solidity ^0.5.8;\nimport \"../library/SafeMath.sol\";\ncontract MicroFinance {\n    using SafeMath for uint256;\n    struct debt {\n        address lender;\n        uint256 amountOfDebt;\n        uint256 interest;\n    }\n    mapping(address => debt) debtInfo;\n    mapping(address => address[]) debtorsList;\n    mapping(address => uint256) public debtorWallet;\n    mapping(address => uint256) public lenderWallet;\n    function request(uint256 amount) public {\n        require(\n            debtInfo[msg.sender].lender == address(0),\n            \"are already lended\"\n        );\n        require(amount > 100 wei, \"the amount is too small to borrow\");\n        uint256 interestValue = (amount.mul(2)).div(100);\n        debtInfo[msg.sender] = debt(address(0), amount, interestValue);\n    }\n    function lend(address to) public payable {\n        require(debtInfo[to].lender == address(0), \"are already lended\");\n        require(debtInfo[to].amountOfDebt != 0, \"do not have any debt\");\n        require(msg.value >= debtInfo[to].amountOfDebt, \"not enough money\");\n        debtInfo[to].lender = msg.sender;\n        debtorsList[msg.sender].push(to);\n        debtorWallet[to] = debtorWallet[to].add(msg.value);\n    }\n    function payBack() public payable {\n        require(\n            debtInfo[msg.sender].lender != address(0),\n            \"do not have any debt\"\n        );\n        uint256 valueNeedtoPay = debtInfo[msg.sender].amountOfDebt +\n            debtInfo[msg.sender].interest;\n        require(msg.value >= valueNeedtoPay, \"not enought money\");\n        address lender = debtInfo[msg.sender].lender;\n        lenderWallet[lender] = lenderWallet[lender].add(msg.value);\n        debtInfo[msg.sender] = debt(address(0), 0, 0);\n    }\n    function withDrawDebtor(uint256 amount) public {\n        uint256 amountWallet = debtorWallet[msg.sender];\n        require(amountWallet >= amount, \"not enought money\");\n        debtorWallet[msg.sender] = debtorWallet[msg.sender].sub(amount);\n        msg.sender.transfer(amount);\n    }\n    function withDrawLender(uint256 amount) public {\n        uint256 amountWallet = lenderWallet[msg.sender];\n        require(amountWallet >= amount, \"not enought money\");\n        lenderWallet[msg.sender] = lenderWallet[msg.sender].sub(amount);\n        msg.sender.transfer(amount);\n    }\n    function getDebtorsList() public view returns (address[] memory) {\n        return debtorsList[msg.sender];\n    }\n    function getLenderFromDebtInfo() public view returns (address) {\n        return debtInfo[msg.sender].lender;\n    }\n    function getDebtFromDebtInfo() public view returns (uint256) {\n        return debtInfo[msg.sender].amountOfDebt;\n    }\n    function getInterestFromDebtInfo() public view returns (uint256) {\n        return debtInfo[msg.sender].interest;\n    }\n}\n",
  "sourcePath": "/home/tuan/Documents/dapp/microfinance/contracts/MicroFinance.sol",
  "compiler": {
    "name": "solc",
    "version": "0.5.8+commit.23d335f2.Emscripten.clang"
  },
  "schemaVersion": "3.0.16",
  "updatedAt": "2020-02-10T18:41:35.325Z",
  "devdoc": {
    "methods": {}
  },
  "userdoc": {
    "methods": {}
  }
}