{
  "contractName": "MicroFinance",
  "abi": [
    {
      "anonymous": false,
      "inputs": [
        {
          "indexed": false,
          "internalType": "address",
          "name": "lender",
          "type": "address"
        },
        {
          "indexed": false,
          "internalType": "address",
          "name": "debtor",
          "type": "address"
        },
        {
          "indexed": false,
          "internalType": "uint256",
          "name": "amount",
          "type": "uint256"
        },
        {
          "indexed": false,
          "internalType": "bytes32",
          "name": "requestID",
          "type": "bytes32"
        }
      ],
      "name": "Lend",
      "type": "event"
    },
    {
      "anonymous": false,
      "inputs": [
        {
          "indexed": false,
          "internalType": "address",
          "name": "lender",
          "type": "address"
        },
        {
          "indexed": false,
          "internalType": "address",
          "name": "debtor",
          "type": "address"
        },
        {
          "indexed": false,
          "internalType": "uint256",
          "name": "amount",
          "type": "uint256"
        },
        {
          "indexed": false,
          "internalType": "bytes32",
          "name": "requestID",
          "type": "bytes32"
        }
      ],
      "name": "Pay",
      "type": "event"
    },
    {
      "anonymous": false,
      "inputs": [
        {
          "indexed": false,
          "internalType": "address",
          "name": "requester",
          "type": "address"
        },
        {
          "indexed": false,
          "internalType": "uint256",
          "name": "amount",
          "type": "uint256"
        },
        {
          "indexed": false,
          "internalType": "bytes32",
          "name": "requestID",
          "type": "bytes32"
        }
      ],
      "name": "Request",
      "type": "event"
    },
    {
      "constant": false,
      "inputs": [],
      "name": "register",
      "outputs": [],
      "payable": false,
      "stateMutability": "nonpayable",
      "type": "function"
    },
    {
      "constant": false,
      "inputs": [
        {
          "internalType": "uint256",
          "name": "amount",
          "type": "uint256"
        }
      ],
      "name": "request",
      "outputs": [],
      "payable": false,
      "stateMutability": "nonpayable",
      "type": "function"
    },
    {
      "constant": false,
      "inputs": [
        {
          "internalType": "bytes32",
          "name": "requestID",
          "type": "bytes32"
        }
      ],
      "name": "lend",
      "outputs": [],
      "payable": true,
      "stateMutability": "payable",
      "type": "function"
    },
    {
      "constant": false,
      "inputs": [],
      "name": "payBack",
      "outputs": [],
      "payable": true,
      "stateMutability": "payable",
      "type": "function"
    },
    {
      "constant": false,
      "inputs": [
        {
          "internalType": "uint256",
          "name": "amount",
          "type": "uint256"
        }
      ],
      "name": "withDraw",
      "outputs": [],
      "payable": false,
      "stateMutability": "nonpayable",
      "type": "function"
    },
    {
      "constant": true,
      "inputs": [],
      "name": "getParticipants",
      "outputs": [
        {
          "internalType": "address[]",
          "name": "",
          "type": "address[]"
        }
      ],
      "payable": false,
      "stateMutability": "view",
      "type": "function"
    },
    {
      "constant": true,
      "inputs": [],
      "name": "checkParticipate",
      "outputs": [
        {
          "internalType": "bool",
          "name": "",
          "type": "bool"
        }
      ],
      "payable": false,
      "stateMutability": "view",
      "type": "function"
    },
    {
      "constant": true,
      "inputs": [
        {
          "internalType": "address",
          "name": "to",
          "type": "address"
        }
      ],
      "name": "getRequestDebt",
      "outputs": [
        {
          "internalType": "bytes32",
          "name": "",
          "type": "bytes32"
        }
      ],
      "payable": false,
      "stateMutability": "view",
      "type": "function"
    },
    {
      "constant": true,
      "inputs": [
        {
          "internalType": "address",
          "name": "to",
          "type": "address"
        }
      ],
      "name": "getActiveDebt",
      "outputs": [
        {
          "internalType": "bytes32",
          "name": "",
          "type": "bytes32"
        }
      ],
      "payable": false,
      "stateMutability": "view",
      "type": "function"
    },
    {
      "constant": true,
      "inputs": [
        {
          "internalType": "address",
          "name": "to",
          "type": "address"
        }
      ],
      "name": "getDebtHistory",
      "outputs": [
        {
          "internalType": "bytes32[]",
          "name": "",
          "type": "bytes32[]"
        }
      ],
      "payable": false,
      "stateMutability": "view",
      "type": "function"
    },
    {
      "constant": true,
      "inputs": [
        {
          "internalType": "address",
          "name": "borrower",
          "type": "address"
        }
      ],
      "name": "checkBorrowingStatus",
      "outputs": [
        {
          "internalType": "bool",
          "name": "",
          "type": "bool"
        }
      ],
      "payable": false,
      "stateMutability": "view",
      "type": "function"
    },
    {
      "constant": true,
      "inputs": [],
      "name": "getWalletValue",
      "outputs": [
        {
          "internalType": "uint256",
          "name": "",
          "type": "uint256"
        }
      ],
      "payable": false,
      "stateMutability": "view",
      "type": "function"
    },
    {
      "constant": true,
      "inputs": [],
      "name": "getDebtorsList",
      "outputs": [
        {
          "internalType": "address[]",
          "name": "",
          "type": "address[]"
        }
      ],
      "payable": false,
      "stateMutability": "view",
      "type": "function"
    },
    {
      "constant": true,
      "inputs": [
        {
          "internalType": "bytes32",
          "name": "loanID",
          "type": "bytes32"
        }
      ],
      "name": "getValueNeedToPay",
      "outputs": [
        {
          "internalType": "uint256",
          "name": "",
          "type": "uint256"
        }
      ],
      "payable": false,
      "stateMutability": "view",
      "type": "function"
    },
    {
      "constant": true,
      "inputs": [
        {
          "internalType": "bytes32",
          "name": "loanID",
          "type": "bytes32"
        }
      ],
      "name": "getLenderFromDebtInfo",
      "outputs": [
        {
          "internalType": "address",
          "name": "",
          "type": "address"
        }
      ],
      "payable": false,
      "stateMutability": "view",
      "type": "function"
    },
    {
      "constant": true,
      "inputs": [
        {
          "internalType": "bytes32",
          "name": "loanID",
          "type": "bytes32"
        }
      ],
      "name": "getDebtFromDebtInfo",
      "outputs": [
        {
          "internalType": "uint256",
          "name": "",
          "type": "uint256"
        }
      ],
      "payable": false,
      "stateMutability": "view",
      "type": "function"
    },
    {
      "constant": true,
      "inputs": [
        {
          "internalType": "bytes32",
          "name": "loanID",
          "type": "bytes32"
        }
      ],
      "name": "getInterestFromDebtInfo",
      "outputs": [
        {
          "internalType": "uint256",
          "name": "",
          "type": "uint256"
        }
      ],
      "payable": false,
      "stateMutability": "view",
      "type": "function"
    }
  ],
  "bytecode": "0x608060405234801561001057600080fd5b50612335806100206000396000f3fe6080604052600436106100fe5760003560e01c806343505730116100955780638addd5bc116100645780638addd5bc146104ef578063b0f4d6251461053e578063ccd49cbb14610569578063d845a4b3146105d2578063eab1e4341461060d576100fe565b8063435057301461035f57806348fd69b3146104055780635aa68ac01461045457806374f8fc35146104c0576100fe565b806316d80311116100d157806316d80311146101fc578063175481dd146102685780631aa3a008146102e35780632eddef67146102fa576100fe565b8063019f64cc146101035780630f99f7531461010d57806311393a851461017257806314174f33146101c1575b600080fd5b61010b61063b565b005b34801561011957600080fd5b5061015c6004803603602081101561013057600080fd5b81019080803573ffffffffffffffffffffffffffffffffffffffff169060200190929190505050610b48565b6040518082815260200191505060405180910390f35b34801561017e57600080fd5b506101ab6004803603602081101561019557600080fd5b8101908080359060200190929190505050610b91565b6040518082815260200191505060405180910390f35b3480156101cd57600080fd5b506101fa600480360360208110156101e457600080fd5b8101908080359060200190929190505050610bd7565b005b34801561020857600080fd5b50610211610dee565b6040518080602001828103825283818151815260200191508051906020019060200280838360005b83811015610254578082015181840152602081019050610239565b505050509050019250505060405180910390f35b34801561027457600080fd5b506102a16004803603602081101561028b57600080fd5b8101908080359060200190929190505050610eb9565b604051808273ffffffffffffffffffffffffffffffffffffffff1673ffffffffffffffffffffffffffffffffffffffff16815260200191505060405180910390f35b3480156102ef57600080fd5b506102f8610ef8565b005b34801561030657600080fd5b506103496004803603602081101561031d57600080fd5b81019080803573ffffffffffffffffffffffffffffffffffffffff16906020019092919050505061107e565b6040518082815260200191505060405180910390f35b34801561036b57600080fd5b506103ae6004803603602081101561038257600080fd5b81019080803573ffffffffffffffffffffffffffffffffffffffff1690602001909291905050506110c7565b6040518080602001828103825283818151815260200191508051906020019060200280838360005b838110156103f15780820151818401526020810190506103d6565b505050509050019250505060405180910390f35b34801561041157600080fd5b5061043e6004803603602081101561042857600080fd5b810190808035906020019092919050505061115e565b6040518082815260200191505060405180910390f35b34801561046057600080fd5b5061046961117d565b6040518080602001828103825283818151815260200191508051906020019060200280838360005b838110156104ac578082015181840152602081019050610491565b505050509050019250505060405180910390f35b3480156104cc57600080fd5b506104d561120b565b604051808215151515815260200191505060405180910390f35b3480156104fb57600080fd5b506105286004803603602081101561051257600080fd5b810190808035906020019092919050505061125f565b6040518082815260200191505060405180910390f35b34801561054a57600080fd5b5061055361127e565b6040518082815260200191505060405180910390f35b34801561057557600080fd5b506105b86004803603602081101561058c57600080fd5b81019080803573ffffffffffffffffffffffffffffffffffffffff1690602001909291905050506112c5565b604051808215151515815260200191505060405180910390f35b3480156105de57600080fd5b5061060b600480360360208110156105f557600080fd5b8101908080359060200190929190505050611358565b005b6106396004803603602081101561062357600080fd5b8101908080359060200190929190505050611832565b005b6000600260003373ffffffffffffffffffffffffffffffffffffffff1673ffffffffffffffffffffffffffffffffffffffff1681526020019081526020016000205490506000801b8114156106f8576040517f08c379a00000000000000000000000000000000000000000000000000000000081526004018080602001828103825260148152602001807f646f206e6f74206861766520616e79206465627400000000000000000000000081525060200191505060405180910390fd5b600073ffffffffffffffffffffffffffffffffffffffff1660008083815260200190815260200160002060000160009054906101000a900473ffffffffffffffffffffffffffffffffffffffff1673ffffffffffffffffffffffffffffffffffffffff1614156107d0576040517f08c379a00000000000000000000000000000000000000000000000000000000081526004018080602001828103825260148152602001807f646f206e6f74206861766520616e79206465627400000000000000000000000081525060200191505060405180910390fd5b60006107db82610b91565b905080341015610853576040517f08c379a00000000000000000000000000000000000000000000000000000000081526004018080602001828103825260118152602001807f6e6f7420656e6f75676874206d6f6e657900000000000000000000000000000081525060200191505060405180910390fd5b600080600084815260200190815260200160002060000160009054906101000a900473ffffffffffffffffffffffffffffffffffffffff1690506108df34600660008473ffffffffffffffffffffffffffffffffffffffff1673ffffffffffffffffffffffffffffffffffffffff16815260200190815260200160002054611f9690919063ffffffff16565b600660008373ffffffffffffffffffffffffffffffffffffffff1673ffffffffffffffffffffffffffffffffffffffff168152602001908152602001600020819055506000600460008373ffffffffffffffffffffffffffffffffffffffff1673ffffffffffffffffffffffffffffffffffffffff16815260200190815260200160002060003373ffffffffffffffffffffffffffffffffffffffff1673ffffffffffffffffffffffffffffffffffffffff16815260200190815260200160002060006101000a81548160ff0219169083151502179055506000801b600260003373ffffffffffffffffffffffffffffffffffffffff1673ffffffffffffffffffffffffffffffffffffffff16815260200190815260200160002081905550600360003373ffffffffffffffffffffffffffffffffffffffff1673ffffffffffffffffffffffffffffffffffffffff1681526020019081526020016000208390806001815401808255809150509060018203906000526020600020016000909192909190915055507f3f7abd628f3ab7571c91a4a830574cfbc92ef3d28775ecf82fa06e4f0d41364f60008085815260200190815260200160002060000160009054906101000a900473ffffffffffffffffffffffffffffffffffffffff16338486604051808573ffffffffffffffffffffffffffffffffffffffff1673ffffffffffffffffffffffffffffffffffffffff1681526020018473ffffffffffffffffffffffffffffffffffffffff1673ffffffffffffffffffffffffffffffffffffffff16815260200183815260200182815260200194505050505060405180910390a1505050565b6000600260008373ffffffffffffffffffffffffffffffffffffffff1673ffffffffffffffffffffffffffffffffffffffff168152602001908152602001600020549050919050565b6000610bd06000808481526020019081526020016000206003015460008085815260200190815260200160002060020154611f9690919063ffffffff16565b9050919050565b6000600660003373ffffffffffffffffffffffffffffffffffffffff1673ffffffffffffffffffffffffffffffffffffffff16815260200190815260200160002054905060003390506000831415610c97576040517f08c379a00000000000000000000000000000000000000000000000000000000081526004018080602001828103825260198152602001807f74686520616d6f756e742063616e277420626520656d7074790000000000000081525060200191505060405180910390fd5b82821015610d0d576040517f08c379a00000000000000000000000000000000000000000000000000000000081526004018080602001828103825260108152602001807f6e6f7420656e6f756768206d6f6e65790000000000000000000000000000000081525060200191505060405180910390fd5b610d5f83600660003373ffffffffffffffffffffffffffffffffffffffff1673ffffffffffffffffffffffffffffffffffffffff1681526020019081526020016000205461201e90919063ffffffff16565b600660003373ffffffffffffffffffffffffffffffffffffffff1673ffffffffffffffffffffffffffffffffffffffff168152602001908152602001600020819055508073ffffffffffffffffffffffffffffffffffffffff166108fc849081150290604051600060405180830381858888f19350505050158015610de8573d6000803e3d6000fd5b50505050565b6060600560003373ffffffffffffffffffffffffffffffffffffffff1673ffffffffffffffffffffffffffffffffffffffff168152602001908152602001600020805480602002602001604051908101604052809291908181526020018280548015610eaf57602002820191906000526020600020905b8160009054906101000a900473ffffffffffffffffffffffffffffffffffffffff1673ffffffffffffffffffffffffffffffffffffffff1681526020019060010190808311610e65575b5050505050905090565b600080600083815260200190815260200160002060000160009054906101000a900473ffffffffffffffffffffffffffffffffffffffff169050919050565b60001515600760003373ffffffffffffffffffffffffffffffffffffffff1673ffffffffffffffffffffffffffffffffffffffff16815260200190815260200160002060009054906101000a900460ff16151514610fbe576040517f08c379a00000000000000000000000000000000000000000000000000000000081526004018080602001828103825260128152602001807f616c72656164792072656769737465726564000000000000000000000000000081525060200191505060405180910390fd5b6001600760003373ffffffffffffffffffffffffffffffffffffffff1673ffffffffffffffffffffffffffffffffffffffff16815260200190815260200160002060006101000a81548160ff02191690831515021790555060083390806001815401808255809150509060018203906000526020600020016000909192909190916101000a81548173ffffffffffffffffffffffffffffffffffffffff021916908373ffffffffffffffffffffffffffffffffffffffff16021790555050565b6000600160008373ffffffffffffffffffffffffffffffffffffffff1673ffffffffffffffffffffffffffffffffffffffff168152602001908152602001600020549050919050565b6060600360008373ffffffffffffffffffffffffffffffffffffffff1673ffffffffffffffffffffffffffffffffffffffff16815260200190815260200160002080548060200260200160405190810160405280929190818152602001828054801561115257602002820191906000526020600020905b81548152602001906001019080831161113e575b50505050509050919050565b6000806000838152602001908152602001600020600301549050919050565b6060600880548060200260200160405190810160405280929190818152602001828054801561120157602002820191906000526020600020905b8160009054906101000a900473ffffffffffffffffffffffffffffffffffffffff1673ffffffffffffffffffffffffffffffffffffffff16815260200190600101908083116111b7575b5050505050905090565b6000600760003373ffffffffffffffffffffffffffffffffffffffff1673ffffffffffffffffffffffffffffffffffffffff16815260200190815260200160002060009054906101000a900460ff16905090565b6000806000838152602001908152602001600020600201549050919050565b6000600660003373ffffffffffffffffffffffffffffffffffffffff1673ffffffffffffffffffffffffffffffffffffffff16815260200190815260200160002054905090565b6000600460003373ffffffffffffffffffffffffffffffffffffffff1673ffffffffffffffffffffffffffffffffffffffff16815260200190815260200160002060008373ffffffffffffffffffffffffffffffffffffffff1673ffffffffffffffffffffffffffffffffffffffff16815260200190815260200160002060009054906101000a900460ff169050919050565b600060023342604051602001808373ffffffffffffffffffffffffffffffffffffffff1673ffffffffffffffffffffffffffffffffffffffff1660601b8152601401828152602001925050506040516020818303038152906040526040518082805190602001908083835b602083106113e657805182526020820191506020810190506020830392506113c3565b6001836020036101000a038019825116818451168082178552505050505050905001915050602060405180830381855afa158015611428573d6000803e3d6000fd5b5050506040513d602081101561143d57600080fd5b8101908080519060200190929190505050905060011515600760003373ffffffffffffffffffffffffffffffffffffffff1673ffffffffffffffffffffffffffffffffffffffff16815260200190815260200160002060009054906101000a900460ff16151514611516576040517f08c379a00000000000000000000000000000000000000000000000000000000081526004018080602001828103825260138152602001807f68617665206e6f7420726567697374657265640000000000000000000000000081525060200191505060405180910390fd5b600073ffffffffffffffffffffffffffffffffffffffff1660008083815260200190815260200160002060000160009054906101000a900473ffffffffffffffffffffffffffffffffffffffff1673ffffffffffffffffffffffffffffffffffffffff16146115ed576040517f08c379a00000000000000000000000000000000000000000000000000000000081526004018080602001828103825260128152602001807f61726520616c7265616479206c656e646564000000000000000000000000000081525060200191505060405180910390fd5b60648211611646576040517f08c379a00000000000000000000000000000000000000000000000000000000081526004018080602001828103825260218152602001806122bf6021913960400191505060405180910390fd5b600061166f606461166160028661206890919063ffffffff16565b6120ee90919063ffffffff16565b90506040518060800160405280600073ffffffffffffffffffffffffffffffffffffffff1681526020013373ffffffffffffffffffffffffffffffffffffffff1681526020018481526020018281525060008084815260200190815260200160002060008201518160000160006101000a81548173ffffffffffffffffffffffffffffffffffffffff021916908373ffffffffffffffffffffffffffffffffffffffff16021790555060208201518160010160006101000a81548173ffffffffffffffffffffffffffffffffffffffff021916908373ffffffffffffffffffffffffffffffffffffffff160217905550604082015181600201556060820151816003015590505081600160003373ffffffffffffffffffffffffffffffffffffffff1673ffffffffffffffffffffffffffffffffffffffff168152602001908152602001600020819055507fd4467e2d69b2759959412d2c02689a2d453543dc07b07c99339222fd08a70080338484604051808473ffffffffffffffffffffffffffffffffffffffff1673ffffffffffffffffffffffffffffffffffffffff168152602001838152602001828152602001935050505060405180910390a1505050565b60011515600760003373ffffffffffffffffffffffffffffffffffffffff1673ffffffffffffffffffffffffffffffffffffffff16815260200190815260200160002060009054906101000a900460ff161515146118f8576040517f08c379a00000000000000000000000000000000000000000000000000000000081526004018080602001828103825260138152602001807f68617665206e6f7420726567697374657265640000000000000000000000000081525060200191505060405180910390fd5b6000806000838152602001908152602001600020600201549050600080600084815260200190815260200160002060010160009054906101000a900473ffffffffffffffffffffffffffffffffffffffff1690503373ffffffffffffffffffffffffffffffffffffffff168173ffffffffffffffffffffffffffffffffffffffff1614156119ee576040517f08c379a000000000000000000000000000000000000000000000000000000000815260040180806020018281038252601c8152602001807f63616e6e6f742067697665206c6f616e20627920796f757273656c660000000081525060200191505060405180910390fd5b60001515600460003373ffffffffffffffffffffffffffffffffffffffff1673ffffffffffffffffffffffffffffffffffffffff16815260200190815260200160002060008373ffffffffffffffffffffffffffffffffffffffff1673ffffffffffffffffffffffffffffffffffffffff16815260200190815260200160002060009054906101000a900460ff16151514611af1576040517f08c379a00000000000000000000000000000000000000000000000000000000081526004018080602001828103825260128152602001807f61726520616c7265616479206c656e646564000000000000000000000000000081525060200191505060405180910390fd5b600073ffffffffffffffffffffffffffffffffffffffff1660008085815260200190815260200160002060000160009054906101000a900473ffffffffffffffffffffffffffffffffffffffff1673ffffffffffffffffffffffffffffffffffffffff1614611bc8576040517f08c379a00000000000000000000000000000000000000000000000000000000081526004018080602001828103825260128152602001807f61726520616c7265616479206c656e646564000000000000000000000000000081525060200191505060405180910390fd5b81341015611c3e576040517f08c379a00000000000000000000000000000000000000000000000000000000081526004018080602001828103825260108152602001807f6e6f7420656e6f756768206d6f6e65790000000000000000000000000000000081525060200191505060405180910390fd5b3360008085815260200190815260200160002060000160006101000a81548173ffffffffffffffffffffffffffffffffffffffff021916908373ffffffffffffffffffffffffffffffffffffffff1602179055506001600460003373ffffffffffffffffffffffffffffffffffffffff1673ffffffffffffffffffffffffffffffffffffffff16815260200190815260200160002060008373ffffffffffffffffffffffffffffffffffffffff1673ffffffffffffffffffffffffffffffffffffffff16815260200190815260200160002060006101000a81548160ff0219169083151502179055506000801b600160008373ffffffffffffffffffffffffffffffffffffffff1673ffffffffffffffffffffffffffffffffffffffff1681526020019081526020016000208190555082600260008373ffffffffffffffffffffffffffffffffffffffff1673ffffffffffffffffffffffffffffffffffffffff16815260200190815260200160002081905550600560003373ffffffffffffffffffffffffffffffffffffffff1673ffffffffffffffffffffffffffffffffffffffff1681526020019081526020016000208190806001815401808255809150509060018203906000526020600020016000909192909190916101000a81548173ffffffffffffffffffffffffffffffffffffffff021916908373ffffffffffffffffffffffffffffffffffffffff16021790555050611ea734600660008473ffffffffffffffffffffffffffffffffffffffff1673ffffffffffffffffffffffffffffffffffffffff16815260200190815260200160002054611f9690919063ffffffff16565b600660008373ffffffffffffffffffffffffffffffffffffffff1673ffffffffffffffffffffffffffffffffffffffff168152602001908152602001600020819055507fabba7ab0d687a9ceb9a24d54cba06ce31d073e464ef1f21b0b62e1f3b70ad69b33828486604051808573ffffffffffffffffffffffffffffffffffffffff1673ffffffffffffffffffffffffffffffffffffffff1681526020018473ffffffffffffffffffffffffffffffffffffffff1673ffffffffffffffffffffffffffffffffffffffff16815260200183815260200182815260200194505050505060405180910390a1505050565b600080828401905083811015612014576040517f08c379a000000000000000000000000000000000000000000000000000000000815260040180806020018281038252601b8152602001807f536166654d6174683a206164646974696f6e206f766572666c6f77000000000081525060200191505060405180910390fd5b8091505092915050565b600061206083836040518060400160405280601e81526020017f536166654d6174683a207375627472616374696f6e206f766572666c6f770000815250612138565b905092915050565b60008083141561207b57600090506120e8565b600082840290508284828161208c57fe5b04146120e3576040517f08c379a00000000000000000000000000000000000000000000000000000000081526004018080602001828103825260218152602001806122e06021913960400191505060405180910390fd5b809150505b92915050565b600061213083836040518060400160405280601a81526020017f536166654d6174683a206469766973696f6e206279207a65726f0000000000008152506121f8565b905092915050565b60008383111582906121e5576040517f08c379a00000000000000000000000000000000000000000000000000000000081526004018080602001828103825283818151815260200191508051906020019080838360005b838110156121aa57808201518184015260208101905061218f565b50505050905090810190601f1680156121d75780820380516001836020036101000a031916815260200191505b509250505060405180910390fd5b5060008385039050809150509392505050565b600080831182906122a4576040517f08c379a00000000000000000000000000000000000000000000000000000000081526004018080602001828103825283818151815260200191508051906020019080838360005b8381101561226957808201518184015260208101905061224e565b50505050905090810190601f1680156122965780820380516001836020036101000a031916815260200191505b509250505060405180910390fd5b5060008385816122b057fe5b04905080915050939250505056fe74686520616d6f756e7420697320746f6f20736d616c6c20746f20626f72726f77536166654d6174683a206d756c7469706c69636174696f6e206f766572666c6f77a265627a7a723158202935d1dc903118997f0c5564f3601e8d0c5ba027b3cadd5371067de4161dd88864736f6c63430005100032",
  "source": "pragma solidity ^0.5.8;\nimport \"../library/SafeMath.sol\";\ncontract MicroFinance {\n    using SafeMath for uint256;\n    struct debt {\n        address lender;\n        address borrower;\n        uint256 amountOfDebt;\n        uint256 interest;\n    }\n    mapping(bytes32 => debt) debtInfo;\n    mapping(address => bytes32) requestDebt;\n    mapping(address => bytes32) activeDebt;\n    mapping(address => bytes32[]) debtHistory;\n    mapping(address => mapping(address => bool)) borrowingStatus;\n    mapping(address => address[]) debtorsList;\n    mapping(address => uint256) userWallet;\n    mapping(address => bool) isParticipated;\n    address[] participants;\n    event Request(address requester, uint256 amount, bytes32 requestID);\n    event Lend(\n        address lender,\n        address debtor,\n        uint256 amount,\n        bytes32 requestID\n    );\n    event Pay(\n        address lender,\n        address debtor,\n        uint256 amount,\n        bytes32 requestID\n    );\n    function register() public {\n        require(isParticipated[msg.sender] == false, \"already registered\");\n        isParticipated[msg.sender] = true;\n        participants.push(msg.sender);\n    }\n    function request(uint256 amount) public {\n        bytes32 requestID = (sha256(abi.encodePacked(msg.sender, now)));\n        require(isParticipated[msg.sender] == true, \"have not registered\");\n        require(debtInfo[requestID].lender == address(0), \"are already lended\");\n        require(amount > 100 wei, \"the amount is too small to borrow\");\n        uint256 interestValue = (amount.mul(2)).div(100);\n        debtInfo[requestID] = debt(\n            address(0),\n            msg.sender,\n            amount,\n            interestValue\n        );\n        requestDebt[msg.sender] = requestID;\n        emit Request(msg.sender, amount, requestID);\n    }\n    function lend(bytes32 requestID) public payable {\n        require(isParticipated[msg.sender] == true, \"have not registered\");\n        uint256 amountOfDebt = debtInfo[requestID].amountOfDebt;\n        address borrower = debtInfo[requestID].borrower;\n        require(borrower != msg.sender, \"cannot give loan by yourself\");\n        require(\n            borrowingStatus[msg.sender][borrower] == false,\n            \"are already lended\"\n        );\n        require(debtInfo[requestID].lender == address(0), \"are already lended\");\n        require(msg.value >= amountOfDebt, \"not enough money\");\n        debtInfo[requestID].lender = msg.sender;\n        borrowingStatus[msg.sender][borrower] = true;\n        requestDebt[borrower] = 0;\n        activeDebt[borrower] = requestID;\n        debtorsList[msg.sender].push(borrower);\n        userWallet[borrower] = userWallet[borrower].add(msg.value);\n        emit Lend(msg.sender, borrower, amountOfDebt, requestID);\n    }\n    function payBack() public payable {\n        bytes32 loanID = activeDebt[msg.sender];\n        require(loanID != 0, \"do not have any debt\");\n        require(debtInfo[loanID].lender != address(0), \"do not have any debt\");\n        uint256 valueNeedtoPay = getValueNeedToPay(loanID);\n        require(msg.value >= valueNeedtoPay, \"not enought money\");\n        address lender = debtInfo[loanID].lender;\n        userWallet[lender] = userWallet[lender].add(msg.value);\n        borrowingStatus[lender][msg.sender] = false;\n        activeDebt[msg.sender] = 0;\n        debtHistory[msg.sender].push(loanID);\n        emit Pay(debtInfo[loanID].lender, msg.sender, valueNeedtoPay, loanID);\n    }\n    function withDraw(uint256 amount) public {\n        uint256 amountWallet = userWallet[msg.sender];\n        address payable receiver = msg.sender;\n        require(amount != 0, \"the amount can't be empty\");\n        require(amountWallet >= amount, \"not enough money\");\n        userWallet[msg.sender] = userWallet[msg.sender].sub(amount);\n        receiver.transfer(amount);\n    }\n    function getParticipants() public view returns (address[] memory) {\n        return participants;\n    }\n    function checkParticipate() public view returns (bool) {\n        return isParticipated[msg.sender];\n    }\n    function getRequestDebt(address to) public view returns (bytes32) {\n        return requestDebt[to];\n    }\n    function getActiveDebt(address to) public view returns (bytes32) {\n        return activeDebt[to];\n    }\n    function getDebtHistory(address to) public view returns (bytes32[] memory) {\n        return debtHistory[to];\n    }\n    function checkBorrowingStatus(address borrower) public view returns (bool) {\n        return borrowingStatus[msg.sender][borrower];\n    }\n    function getWalletValue() public view returns (uint256) {\n        return userWallet[msg.sender];\n    }\n    function getDebtorsList() public view returns (address[] memory) {\n        return debtorsList[msg.sender];\n    }\n    function getValueNeedToPay(bytes32 loanID) public view returns (uint256) {\n        return debtInfo[loanID].amountOfDebt.add(debtInfo[loanID].interest);\n    }\n    function getLenderFromDebtInfo(bytes32 loanID)\n        public\n        view\n        returns (address)\n    {\n        return debtInfo[loanID].lender;\n    }\n    function getDebtFromDebtInfo(bytes32 loanID) public view returns (uint256) {\n        return debtInfo[loanID].amountOfDebt;\n    }\n    function getInterestFromDebtInfo(bytes32 loanID)\n        public\n        view\n        returns (uint256)\n    {\n        return debtInfo[loanID].interest;\n    }\n}\n",
  "sourcePath": "/home/leo/Documents/dapp/microfinance-dapp/contracts/MicroFinance.sol",
  "compiler": {
    "name": "solc",
    "version": "0.5.16+commit.9c3226ce.Emscripten.clang"
  },
  "schemaVersion": "3.0.23",
  "updatedAt": "2020-03-23T01:29:11.438Z",
  "networkType": "ethereum",
  "devdoc": {
    "methods": {}
  },
  "userdoc": {
    "methods": {}
  }
}