{
  "contractName": "Proxy",
  "abi": [
    {
      "inputs": [
        {
          "internalType": "string",
          "name": "name",
          "type": "string"
        },
        {
          "internalType": "address",
          "name": "contractAddress",
          "type": "address"
        }
      ],
      "name": "addContract",
      "outputs": [],
      "stateMutability": "nonpayable",
      "type": "function"
    },
    {
      "inputs": [],
      "name": "getAddressOfHeartToken",
      "outputs": [
        {
          "internalType": "address",
          "name": "",
          "type": "address"
        }
      ],
      "stateMutability": "view",
      "type": "function",
      "constant": true
    },
    {
      "inputs": [],
      "name": "getAddressOfLoanDB",
      "outputs": [
        {
          "internalType": "address",
          "name": "",
          "type": "address"
        }
      ],
      "stateMutability": "view",
      "type": "function",
      "constant": true
    },
    {
      "inputs": [],
      "name": "getAddressOfLoanManager",
      "outputs": [
        {
          "internalType": "address",
          "name": "",
          "type": "address"
        }
      ],
      "stateMutability": "view",
      "type": "function",
      "constant": true
    },
    {
      "inputs": [],
      "name": "getAddressOfWallet",
      "outputs": [
        {
          "internalType": "address",
          "name": "",
          "type": "address"
        }
      ],
      "stateMutability": "view",
      "type": "function",
      "constant": true
    },
    {
      "inputs": [
        {
          "internalType": "string",
          "name": "name",
          "type": "string"
        }
      ],
      "name": "getContract",
      "outputs": [
        {
          "internalType": "address",
          "name": "",
          "type": "address"
        }
      ],
      "stateMutability": "view",
      "type": "function",
      "constant": true
    },
    {
      "inputs": [],
      "name": "owner",
      "outputs": [
        {
          "internalType": "address payable",
          "name": "",
          "type": "address"
        }
      ],
      "stateMutability": "view",
      "type": "function",
      "constant": true
    },
    {
      "inputs": [
        {
          "internalType": "address payable",
          "name": "newOwner",
          "type": "address"
        }
      ],
      "name": "transferOwnership",
      "outputs": [],
      "stateMutability": "nonpayable",
      "type": "function"
    },
    {
      "inputs": [
        {
          "internalType": "uint256",
          "name": "_amount",
          "type": "uint256"
        }
      ],
      "name": "postRequest",
      "outputs": [],
      "stateMutability": "nonpayable",
      "type": "function"
    },
    {
      "inputs": [
        {
          "internalType": "bytes32",
          "name": "_debtNo",
          "type": "bytes32"
        }
      ],
      "name": "lendLoan",
      "outputs": [],
      "stateMutability": "payable",
      "type": "function",
      "payable": true
    },
    {
      "inputs": [
        {
          "internalType": "bytes32",
          "name": "_debtNo",
          "type": "bytes32"
        }
      ],
      "name": "payLoan",
      "outputs": [],
      "stateMutability": "payable",
      "type": "function",
      "payable": true
    },
    {
      "inputs": [
        {
          "internalType": "uint256",
          "name": "_amount",
          "type": "uint256"
        }
      ],
      "name": "burnToken",
      "outputs": [],
      "stateMutability": "nonpayable",
      "type": "function"
    },
    {
      "inputs": [
        {
          "internalType": "uint256",
          "name": "_amount",
          "type": "uint256"
        }
      ],
      "name": "withDraw",
      "outputs": [],
      "stateMutability": "nonpayable",
      "type": "function"
    }
  ],
  "bytecode": "0x6080604052336000806101000a81548173ffffffffffffffffffffffffffffffffffffffff021916908373ffffffffffffffffffffffffffffffffffffffff160217905550611040806100536000396000f3fe6080604052600436106100c25760003560e01c8063bcb3f2581161007f578063ea0bdcff11610059578063ea0bdcff1461048e578063ea70d33e146104e5578063f2fde38b14610520578063f763c84714610571576100c2565b8063bcb3f25814610321578063bf5b601614610378578063d808c91b14610460576100c2565b806314174f33146100c75780631dd4b9d9146101025780632c18a6421461015957806335817773146101875780637b47ec1a1461028f5780638da5cb5b146102ca575b600080fd5b3480156100d357600080fd5b50610100600480360360208110156100ea57600080fd5b81019080803590602001909291905050506105c8565b005b34801561010e57600080fd5b50610117610671565b604051808273ffffffffffffffffffffffffffffffffffffffff1673ffffffffffffffffffffffffffffffffffffffff16815260200191505060405180910390f35b6101856004803603602081101561016f57600080fd5b81019080803590602001909291905050506106b6565b005b34801561019357600080fd5b5061024d600480360360208110156101aa57600080fd5b81019080803590602001906401000000008111156101c757600080fd5b8201836020820111156101d957600080fd5b803590602001918460018302840111640100000000831117156101fb57600080fd5b91908080601f016020809104026020016040519081016040528093929190818152602001838380828437600081840152601f19601f820116905080830192505050505050509192919290505050610760565b604051808273ffffffffffffffffffffffffffffffffffffffff1673ffffffffffffffffffffffffffffffffffffffff16815260200191505060405180910390f35b34801561029b57600080fd5b506102c8600480360360208110156102b257600080fd5b810190808035906020019092919050505061091e565b005b3480156102d657600080fd5b506102df6109c7565b604051808273ffffffffffffffffffffffffffffffffffffffff1673ffffffffffffffffffffffffffffffffffffffff16815260200191505060405180910390f35b34801561032d57600080fd5b506103366109ec565b604051808273ffffffffffffffffffffffffffffffffffffffff1673ffffffffffffffffffffffffffffffffffffffff16815260200191505060405180910390f35b34801561038457600080fd5b5061045e6004803603604081101561039b57600080fd5b81019080803590602001906401000000008111156103b857600080fd5b8201836020820111156103ca57600080fd5b803590602001918460018302840111640100000000831117156103ec57600080fd5b91908080601f016020809104026020016040519081016040528093929190818152602001838380828437600081840152601f19601f820116905080830192505050505050509192919290803573ffffffffffffffffffffffffffffffffffffffff169060200190929190505050610a31565b005b61048c6004803603602081101561047657600080fd5b8101908080359060200190929190505050610c5e565b005b34801561049a57600080fd5b506104a3610d08565b604051808273ffffffffffffffffffffffffffffffffffffffff1673ffffffffffffffffffffffffffffffffffffffff16815260200191505060405180910390f35b3480156104f157600080fd5b5061051e6004803603602081101561050857600080fd5b8101908080359060200190929190505050610d4d565b005b34801561052c57600080fd5b5061056f6004803603602081101561054357600080fd5b81019080803573ffffffffffffffffffffffffffffffffffffffff169060200190929190505050610ef7565b005b34801561057d57600080fd5b50610586610fc5565b604051808273ffffffffffffffffffffffffffffffffffffffff1673ffffffffffffffffffffffffffffffffffffffff16815260200191505060405180910390f35b6105d06109ec565b73ffffffffffffffffffffffffffffffffffffffff1663f3fef3a333836040518363ffffffff1660e01b8152600401808373ffffffffffffffffffffffffffffffffffffffff1673ffffffffffffffffffffffffffffffffffffffff16815260200182815260200192505050600060405180830381600087803b15801561065657600080fd5b505af115801561066a573d6000803e3d6000fd5b5050505050565b60006106b16040518060400160405280600681526020017f4c6f616e44420000000000000000000000000000000000000000000000000000815250610760565b905090565b6106be610fc5565b73ffffffffffffffffffffffffffffffffffffffff1663f9a57f613483336040518463ffffffff1660e01b8152600401808381526020018273ffffffffffffffffffffffffffffffffffffffff1673ffffffffffffffffffffffffffffffffffffffff168152602001925050506000604051808303818588803b15801561074457600080fd5b505af1158015610758573d6000803e3d6000fd5b505050505050565b60008073ffffffffffffffffffffffffffffffffffffffff166001836040518082805190602001908083835b602083106107af578051825260208201915060208101905060208303925061078c565b6001836020036101000a038019825116818451168082178552505050505050905001915050908152602001604051809103902060009054906101000a900473ffffffffffffffffffffffffffffffffffffffff1673ffffffffffffffffffffffffffffffffffffffff16141561088d576040517f08c379a00000000000000000000000000000000000000000000000000000000081526004018080602001828103825260178152602001807f436f6e7472616374206861736e2774207365742079657400000000000000000081525060200191505060405180910390fd5b6001826040518082805190602001908083835b602083106108c357805182526020820191506020810190506020830392506108a0565b6001836020036101000a038019825116818451168082178552505050505050905001915050908152602001604051809103902060009054906101000a900473ffffffffffffffffffffffffffffffffffffffff169050919050565b610926610d08565b73ffffffffffffffffffffffffffffffffffffffff166313baf1e633836040518363ffffffff1660e01b8152600401808373ffffffffffffffffffffffffffffffffffffffff1673ffffffffffffffffffffffffffffffffffffffff16815260200182815260200192505050600060405180830381600087803b1580156109ac57600080fd5b505af11580156109c0573d6000803e3d6000fd5b5050505050565b6000809054906101000a900473ffffffffffffffffffffffffffffffffffffffff1681565b6000610a2c6040518060400160405280600681526020017f57616c6c65740000000000000000000000000000000000000000000000000000815250610760565b905090565b6000809054906101000a900473ffffffffffffffffffffffffffffffffffffffff1673ffffffffffffffffffffffffffffffffffffffff163373ffffffffffffffffffffffffffffffffffffffff1614610a8757fe5b600073ffffffffffffffffffffffffffffffffffffffff166001836040518082805190602001908083835b60208310610ad55780518252602082019150602081019050602083039250610ab2565b6001836020036101000a038019825116818451168082178552505050505050905001915050908152602001604051809103902060009054906101000a900473ffffffffffffffffffffffffffffffffffffffff1673ffffffffffffffffffffffffffffffffffffffff1614610bb2576040517f08c379a00000000000000000000000000000000000000000000000000000000081526004018080602001828103825260178152602001807f436f6e747261637420616c72656164792065786973747300000000000000000081525060200191505060405180910390fd5b806001836040518082805190602001908083835b60208310610be95780518252602082019150602081019050602083039250610bc6565b6001836020036101000a038019825116818451168082178552505050505050905001915050908152602001604051809103902060006101000a81548173ffffffffffffffffffffffffffffffffffffffff021916908373ffffffffffffffffffffffffffffffffffffffff1602179055505050565b610c66610fc5565b73ffffffffffffffffffffffffffffffffffffffff1663b63ae3bd3483336040518463ffffffff1660e01b8152600401808381526020018273ffffffffffffffffffffffffffffffffffffffff1673ffffffffffffffffffffffffffffffffffffffff168152602001925050506000604051808303818588803b158015610cec57600080fd5b505af1158015610d00573d6000803e3d6000fd5b505050505050565b6000610d486040518060400160405280600a81526020017f4865617274546f6b656e00000000000000000000000000000000000000000000815250610760565b905090565b600060023342604051602001808373ffffffffffffffffffffffffffffffffffffffff1673ffffffffffffffffffffffffffffffffffffffff1660601b8152601401828152602001925050506040516020818303038152906040526040518082805190602001908083835b60208310610ddb5780518252602082019150602081019050602083039250610db8565b6001836020036101000a038019825116818451168082178552505050505050905001915050602060405180830381855afa158015610e1d573d6000803e3d6000fd5b5050506040513d6020811015610e3257600080fd5b81019080805190602001909291905050509050610e4d610fc5565b73ffffffffffffffffffffffffffffffffffffffff166399b53cbe8233856040518463ffffffff1660e01b8152600401808481526020018373ffffffffffffffffffffffffffffffffffffffff1673ffffffffffffffffffffffffffffffffffffffff1681526020018281526020019350505050600060405180830381600087803b158015610edb57600080fd5b505af1158015610eef573d6000803e3d6000fd5b505050505050565b6000809054906101000a900473ffffffffffffffffffffffffffffffffffffffff1673ffffffffffffffffffffffffffffffffffffffff163373ffffffffffffffffffffffffffffffffffffffff1614610f4d57fe5b600073ffffffffffffffffffffffffffffffffffffffff168173ffffffffffffffffffffffffffffffffffffffff1614610fc257806000806101000a81548173ffffffffffffffffffffffffffffffffffffffff021916908373ffffffffffffffffffffffffffffffffffffffff1602179055505b50565b60006110056040518060400160405280600b81526020017f4c6f616e4d616e61676572000000000000000000000000000000000000000000815250610760565b90509056fea264697066735822122089aba36851ce024abbf124f8179e2a454dccd97ce5ea35640a4488f9aeac76f764736f6c63430006000033",
  "source": "pragma solidity ^0.6.0;\n\nimport \"./container/BaseContainer.sol\";\nimport \"./modules/LoanManager.sol\";\nimport \"./database/HeartToken.sol\";\nimport \"./modules/Wallet.sol\";\n\n/**\n    @title Proxy\n    @dev All public calls that changes the state of blockchain should come through here\n    @author leodinh\n */\n\ncontract Proxy is BaseContainer {\n    function postRequest(uint256 _amount) external {\n        bytes32 _debtNo = (sha256(abi.encodePacked(msg.sender, now)));\n        LoanManager(getAddressOfLoanManager()).requestLoan(\n            _debtNo,\n            msg.sender,\n            _amount\n        );\n    }\n\n    function lendLoan(bytes32 _debtNo) external payable{\n        LoanManager(getAddressOfLoanManager()).lendLoan.value(msg.value)(\n            _debtNo,\n            msg.sender\n        );\n    }\n\n    function payLoan(bytes32 _debtNo) external payable{\n        LoanManager(getAddressOfLoanManager()).payLoan.value(msg.value)(\n            _debtNo,\n            msg.sender\n        );\n    }\n\n    function burnToken(uint256 _amount) external {\n        HeartToken(payable(getAddressOfHeartToken())).removeToken(msg.sender, _amount);\n    }\n\n    function withDraw(uint256 _amount) external {\n        Wallet(getAddressOfWallet()).withdraw(msg.sender,_amount);\n    }\n}\n",
  "sourcePath": "/home/leo/Documents/dapp/microfinance-dapp/contracts/Proxy.sol",
  "compiler": {
    "name": "solc",
    "version": "0.6.0+commit.26b70077.Emscripten.clang"
  },
  "schemaVersion": "3.0.23",
  "updatedAt": "2020-04-19T20:18:11.347Z",
  "networkType": "ethereum",
  "devdoc": {
    "author": "leodinh",
    "details": "All public calls that changes the state of blockchain should come through here",
    "methods": {},
    "title": "Proxy"
  },
  "userdoc": {
    "methods": {}
  }
}