{
  "contractName": "Proxy",
  "abi": [
    {
      "inputs": [
        {
          "internalType": "string",
          "name": "name",
          "type": "string"
        },
        {
          "internalType": "address",
          "name": "contractAddress",
          "type": "address"
        }
      ],
      "name": "addContract",
      "outputs": [],
      "stateMutability": "nonpayable",
      "type": "function"
    },
    {
      "inputs": [],
      "name": "getAddressOfHeartToken",
      "outputs": [
        {
          "internalType": "address",
          "name": "",
          "type": "address"
        }
      ],
      "stateMutability": "view",
      "type": "function",
      "constant": true
    },
    {
      "inputs": [],
      "name": "getAddressOfLoanDB",
      "outputs": [
        {
          "internalType": "address",
          "name": "",
          "type": "address"
        }
      ],
      "stateMutability": "view",
      "type": "function",
      "constant": true
    },
    {
      "inputs": [],
      "name": "getAddressOfLoanManager",
      "outputs": [
        {
          "internalType": "address",
          "name": "",
          "type": "address"
        }
      ],
      "stateMutability": "view",
      "type": "function",
      "constant": true
    },
    {
      "inputs": [],
      "name": "getAddressOfWallet",
      "outputs": [
        {
          "internalType": "address",
          "name": "",
          "type": "address"
        }
      ],
      "stateMutability": "view",
      "type": "function",
      "constant": true
    },
    {
      "inputs": [
        {
          "internalType": "string",
          "name": "name",
          "type": "string"
        }
      ],
      "name": "getContract",
      "outputs": [
        {
          "internalType": "address",
          "name": "",
          "type": "address"
        }
      ],
      "stateMutability": "view",
      "type": "function",
      "constant": true
    },
    {
      "inputs": [],
      "name": "owner",
      "outputs": [
        {
          "internalType": "address payable",
          "name": "",
          "type": "address"
        }
      ],
      "stateMutability": "view",
      "type": "function",
      "constant": true
    },
    {
      "inputs": [
        {
          "internalType": "address payable",
          "name": "newOwner",
          "type": "address"
        }
      ],
      "name": "transferOwnership",
      "outputs": [],
      "stateMutability": "nonpayable",
      "type": "function"
    },
    {
      "inputs": [
        {
          "internalType": "uint256",
          "name": "_amount",
          "type": "uint256"
        }
      ],
      "name": "postRequest",
      "outputs": [
        {
          "internalType": "bytes32",
          "name": "",
          "type": "bytes32"
        }
      ],
      "stateMutability": "nonpayable",
      "type": "function"
    },
    {
      "inputs": [
        {
          "internalType": "bytes32",
          "name": "_debtNo",
          "type": "bytes32"
        }
      ],
      "name": "lendLoan",
      "outputs": [],
      "stateMutability": "payable",
      "type": "function",
      "payable": true
    },
    {
      "inputs": [
        {
          "internalType": "bytes32",
          "name": "_debtNo",
          "type": "bytes32"
        }
      ],
      "name": "payLoan",
      "outputs": [],
      "stateMutability": "payable",
      "type": "function",
      "payable": true
    },
    {
      "inputs": [
        {
          "internalType": "uint256",
          "name": "_amount",
          "type": "uint256"
        }
      ],
      "name": "burnToken",
      "outputs": [],
      "stateMutability": "nonpayable",
      "type": "function"
    }
  ],
  "bytecode": "0x6080604052336000806101000a81548173ffffffffffffffffffffffffffffffffffffffff021916908373ffffffffffffffffffffffffffffffffffffffff160217905550610f5b806100536000396000f3fe6080604052600436106100a75760003560e01c8063bf5b601611610064578063bf5b601614610322578063d808c91b1461040a578063ea0bdcff14610438578063ea70d33e1461048f578063f2fde38b146104de578063f763c8471461052f576100a7565b80631dd4b9d9146100ac5780632c18a6421461010357806335817773146101315780637b47ec1a146102395780638da5cb5b14610274578063bcb3f258146102cb575b600080fd5b3480156100b857600080fd5b506100c1610586565b604051808273ffffffffffffffffffffffffffffffffffffffff1673ffffffffffffffffffffffffffffffffffffffff16815260200191505060405180910390f35b61012f6004803603602081101561011957600080fd5b81019080803590602001909291905050506105cb565b005b34801561013d57600080fd5b506101f76004803603602081101561015457600080fd5b810190808035906020019064010000000081111561017157600080fd5b82018360208201111561018357600080fd5b803590602001918460018302840111640100000000831117156101a557600080fd5b91908080601f016020809104026020016040519081016040528093929190818152602001838380828437600081840152601f19601f820116905080830192505050505050509192919290505050610675565b604051808273ffffffffffffffffffffffffffffffffffffffff1673ffffffffffffffffffffffffffffffffffffffff16815260200191505060405180910390f35b34801561024557600080fd5b506102726004803603602081101561025c57600080fd5b8101908080359060200190929190505050610833565b005b34801561028057600080fd5b506102896108dc565b604051808273ffffffffffffffffffffffffffffffffffffffff1673ffffffffffffffffffffffffffffffffffffffff16815260200191505060405180910390f35b3480156102d757600080fd5b506102e0610901565b604051808273ffffffffffffffffffffffffffffffffffffffff1673ffffffffffffffffffffffffffffffffffffffff16815260200191505060405180910390f35b34801561032e57600080fd5b506104086004803603604081101561034557600080fd5b810190808035906020019064010000000081111561036257600080fd5b82018360208201111561037457600080fd5b8035906020019184600183028401116401000000008311171561039657600080fd5b91908080601f016020809104026020016040519081016040528093929190818152602001838380828437600081840152601f19601f820116905080830192505050505050509192919290803573ffffffffffffffffffffffffffffffffffffffff169060200190929190505050610946565b005b6104366004803603602081101561042057600080fd5b8101908080359060200190929190505050610b73565b005b34801561044457600080fd5b5061044d610c1d565b604051808273ffffffffffffffffffffffffffffffffffffffff1673ffffffffffffffffffffffffffffffffffffffff16815260200191505060405180910390f35b34801561049b57600080fd5b506104c8600480360360208110156104b257600080fd5b8101908080359060200190929190505050610c62565b6040518082815260200191505060405180910390f35b3480156104ea57600080fd5b5061052d6004803603602081101561050157600080fd5b81019080803573ffffffffffffffffffffffffffffffffffffffff169060200190929190505050610e12565b005b34801561053b57600080fd5b50610544610ee0565b604051808273ffffffffffffffffffffffffffffffffffffffff1673ffffffffffffffffffffffffffffffffffffffff16815260200191505060405180910390f35b60006105c66040518060400160405280600681526020017f4c6f616e44420000000000000000000000000000000000000000000000000000815250610675565b905090565b6105d3610ee0565b73ffffffffffffffffffffffffffffffffffffffff1663f9a57f613483336040518463ffffffff1660e01b8152600401808381526020018273ffffffffffffffffffffffffffffffffffffffff1673ffffffffffffffffffffffffffffffffffffffff168152602001925050506000604051808303818588803b15801561065957600080fd5b505af115801561066d573d6000803e3d6000fd5b505050505050565b60008073ffffffffffffffffffffffffffffffffffffffff166001836040518082805190602001908083835b602083106106c457805182526020820191506020810190506020830392506106a1565b6001836020036101000a038019825116818451168082178552505050505050905001915050908152602001604051809103902060009054906101000a900473ffffffffffffffffffffffffffffffffffffffff1673ffffffffffffffffffffffffffffffffffffffff1614156107a2576040517f08c379a00000000000000000000000000000000000000000000000000000000081526004018080602001828103825260178152602001807f436f6e7472616374206861736e2774207365742079657400000000000000000081525060200191505060405180910390fd5b6001826040518082805190602001908083835b602083106107d857805182526020820191506020810190506020830392506107b5565b6001836020036101000a038019825116818451168082178552505050505050905001915050908152602001604051809103902060009054906101000a900473ffffffffffffffffffffffffffffffffffffffff169050919050565b61083b610c1d565b73ffffffffffffffffffffffffffffffffffffffff166313baf1e633836040518363ffffffff1660e01b8152600401808373ffffffffffffffffffffffffffffffffffffffff1673ffffffffffffffffffffffffffffffffffffffff16815260200182815260200192505050600060405180830381600087803b1580156108c157600080fd5b505af11580156108d5573d6000803e3d6000fd5b5050505050565b6000809054906101000a900473ffffffffffffffffffffffffffffffffffffffff1681565b60006109416040518060400160405280600681526020017f57616c6c65740000000000000000000000000000000000000000000000000000815250610675565b905090565b6000809054906101000a900473ffffffffffffffffffffffffffffffffffffffff1673ffffffffffffffffffffffffffffffffffffffff163373ffffffffffffffffffffffffffffffffffffffff161461099c57fe5b600073ffffffffffffffffffffffffffffffffffffffff166001836040518082805190602001908083835b602083106109ea57805182526020820191506020810190506020830392506109c7565b6001836020036101000a038019825116818451168082178552505050505050905001915050908152602001604051809103902060009054906101000a900473ffffffffffffffffffffffffffffffffffffffff1673ffffffffffffffffffffffffffffffffffffffff1614610ac7576040517f08c379a00000000000000000000000000000000000000000000000000000000081526004018080602001828103825260178152602001807f436f6e747261637420616c72656164792065786973747300000000000000000081525060200191505060405180910390fd5b806001836040518082805190602001908083835b60208310610afe5780518252602082019150602081019050602083039250610adb565b6001836020036101000a038019825116818451168082178552505050505050905001915050908152602001604051809103902060006101000a81548173ffffffffffffffffffffffffffffffffffffffff021916908373ffffffffffffffffffffffffffffffffffffffff1602179055505050565b610b7b610ee0565b73ffffffffffffffffffffffffffffffffffffffff1663b63ae3bd3483336040518463ffffffff1660e01b8152600401808381526020018273ffffffffffffffffffffffffffffffffffffffff1673ffffffffffffffffffffffffffffffffffffffff168152602001925050506000604051808303818588803b158015610c0157600080fd5b505af1158015610c15573d6000803e3d6000fd5b505050505050565b6000610c5d6040518060400160405280600a81526020017f4865617274546f6b656e00000000000000000000000000000000000000000000815250610675565b905090565b60008060023342604051602001808373ffffffffffffffffffffffffffffffffffffffff1673ffffffffffffffffffffffffffffffffffffffff1660601b8152601401828152602001925050506040516020818303038152906040526040518082805190602001908083835b60208310610cf15780518252602082019150602081019050602083039250610cce565b6001836020036101000a038019825116818451168082178552505050505050905001915050602060405180830381855afa158015610d33573d6000803e3d6000fd5b5050506040513d6020811015610d4857600080fd5b81019080805190602001909291905050509050610d63610ee0565b73ffffffffffffffffffffffffffffffffffffffff166399b53cbe8233866040518463ffffffff1660e01b8152600401808481526020018373ffffffffffffffffffffffffffffffffffffffff1673ffffffffffffffffffffffffffffffffffffffff1681526020018281526020019350505050600060405180830381600087803b158015610df157600080fd5b505af1158015610e05573d6000803e3d6000fd5b5050505080915050919050565b6000809054906101000a900473ffffffffffffffffffffffffffffffffffffffff1673ffffffffffffffffffffffffffffffffffffffff163373ffffffffffffffffffffffffffffffffffffffff1614610e6857fe5b600073ffffffffffffffffffffffffffffffffffffffff168173ffffffffffffffffffffffffffffffffffffffff1614610edd57806000806101000a81548173ffffffffffffffffffffffffffffffffffffffff021916908373ffffffffffffffffffffffffffffffffffffffff1602179055505b50565b6000610f206040518060400160405280600b81526020017f4c6f616e4d616e61676572000000000000000000000000000000000000000000815250610675565b90509056fea26469706673582212201a2750a26f784049d0ff2acc729526e9de5814107afdc931878591b7245ab98964736f6c63430006000033",
  "source": "pragma solidity ^0.6.0;\n\nimport \"./container/BaseContainer.sol\";\nimport \"./modules/LoanManager.sol\";\nimport \"./database/HeartToken.sol\";\n\n\n/**\n    @title Proxy\n    @dev All public calls that changes the state of blockchain should come through here\n    @author leodinh\n */\n\ncontract Proxy is BaseContainer {\n    function postRequest(uint256 _amount) external returns (bytes32) {\n        bytes32 _debtNo = (sha256(abi.encodePacked(msg.sender, now)));\n        LoanManager(getAddressOfLoanManager()).requestLoan(\n            _debtNo,\n            msg.sender,\n            _amount\n        );\n        return _debtNo;\n    }\n\n    function lendLoan(bytes32 _debtNo) external payable{\n        LoanManager(getAddressOfLoanManager()).lendLoan.value(msg.value)(\n            _debtNo,\n            msg.sender\n        );\n    }\n\n    function payLoan(bytes32 _debtNo) external payable{\n        LoanManager(getAddressOfLoanManager()).payLoan.value(msg.value)(\n            _debtNo,\n            msg.sender\n        );\n    }\n\n    function burnToken(uint256 _amount) external {\n        HeartToken(payable(getAddressOfHeartToken())).removeToken(msg.sender, _amount);\n    }\n}\n",
  "sourcePath": "/home/leo/Documents/dapp/microfinance-dapp/contracts/Proxy.sol",
  "compiler": {
    "name": "solc",
    "version": "0.6.0+commit.26b70077.Emscripten.clang"
  },
  "schemaVersion": "3.0.23",
  "updatedAt": "2020-04-15T21:18:25.390Z",
  "networkType": "ethereum",
  "devdoc": {
    "author": "leodinh",
    "details": "All public calls that changes the state of blockchain should come through here",
    "methods": {},
    "title": "Proxy"
  },
  "userdoc": {
    "methods": {}
  }
}